:020000040800F2
:100000003091002065010008FF3000085D270008DE
:10001000FD30000881070008593400080000000086
:10002000000000000000000000000000D9310008BE
:10003000150900080000000021310008DB3100082C
:100040007F0100087F0100087F0100087F01000890
:100050007F0100087F0100087F0100087F01000880
:100060007F0100087F0100087F0100087F01000870
:100070007F010008090900087F0100087F010008CE
:100080007F0100087F0100087F0100087F01000850
:100090007F0100087F0100087F0100087F01000840
:1000A0007F0100087F0100087F0100087F01000830
:1000B0007F0100087F0100087F0100087F01000820
:1000C0007F0100087F0100087F0100087F01000810
:1000D0007F0100087F0100087F0100087F01000800
:1000E0007F0100087F0100087F0100080000000078
:1000F0000000000000000000000000000000000000
:1001000000000000000000007F0100087F010008DF
:100110007F0100087F0100087F0100087F010008BF
:100120007F0100087F0100087F0100087F010008AF
:100130007F010008690900087F0100087F010008AD
:100140007F0100087F0100087F0100087F0100088F
:10015000DFF80CD000F084FA004800473D64000846
:10016000309100200648804706480047FEE7FEE73A
:10017000FEE7FEE7FEE7FEE7FEE7FEE7FEE7FEE757
:100180009532000851010008202A04DB203A21FAA8
:1001900002F00021704721FA02F3D040C2F12002A0
:1001A00091400843194670470649074A086850437A
:1001B00043F2390210440860400870470149086062
:1001C00070470000DC0000206D4EC64140EA01038C
:1001D0009B0703D009E008C9121F08C0042AFAD2FD
:1001E00003E011F8013B00F8013B521EF9D27047C1
:1001F000D2B201E000F8012B491EFBD27047002269
:10020000F6E710B513460A4604461946FFF7F0FF15
:10021000204610BD10B5044604E00B7800F8013B01
:1002200003B1491C521EF8D2204610BD10B5002261
:1002300000E0521C835C8C5CA34201D1002BF8D1FE
:10024000D8B2E1B2401A10BD30B5044600200346D2
:1002500000E05B1C934203D2E05CCD5C401BF8D015
:1002600030BD30B50B46014600202022012409E0B4
:1002700021FA02F59D4205D303FA02F5491B04FA5F
:1002800002F52844151EA2F10102F1DC30BD2DE972
:10029000F05F0546002092469B468846064681460A
:1002A00040241BE02846414647462246FFF76CFFA4
:1002B00053465A46C01A914110D311461846224659
:1002C00000F0E0F92D1A67EB01084F4622460120A5
:1002D000002100F0D7F917EB00094E41201EA4F1D0
:1002E0000104DFDC484631462A464346BDE8F09F1C
:1002F0002DE9FE4F804681EA0300C00F0C460090B6
:1003000021F0004123F00045B8EB0200A94105D2DD
:100310004046214690461C460B46024623F00040CC
:10032000104347D0270DC7F30A00C3F30A510290C8
:10033000401A019040286BDAC3F3130040F4801B8D
:100340000098924620B10023D2EB030A63EB0B0B1B
:1003500001985946C0F14002504600F093F9064614
:100360000D4650465946019A00F09BF910EB0800E3
:100370006141002487EA115284EAE7731A4340D0AE
:10038000009A62B3019A012A4FEA075215DC001B5A
:1003900061EB02014FF0004202EA0752CDE9004250
:1003A000001C41F5801132462B4600F09BF903B04A
:1003B000BDE8F08F40462146F9E7001B61EB0201E2
:1003C000001C41F5801300185B412018A2F50017AE
:1003D00047EB030140EAD570B6196D4111E06D0895
:1003E0004FEA360645EAC0754FEA0752001B61EB3B
:1003F0000201001C41F5801149084FEA3000001944
:10040000514132462B4603B0BDE8F04F00F05BB9D6
:100410000098012240000023D0EB020263EBE0735E
:10042000009821464FEAE074B8EB000061EB04014C
:10043000E9E783F000435BE781F0004158E72DE9ED
:10044000FE4F81EA030404F0004421F000410094CF
:100450004FF0000B23F0004350EA01045ED052EA53
:1004600003045BD0C3F30A54C1F30A552C44A4F22D
:10047000F3340194A0FB0254C1F3130141F4801141
:10048000C3F3130343F4801301FB024400FB034E48
:10049000840A970A44EA815447EA8357A4FB076811
:1004A00002958D0A05FB07854FEA932C04FB0C543B
:1004B0002705029D4FEA065847EA1637B5EB0805AF
:1004C0006EEB070C870E920E47EA811742EA831201
:1004D000A7FB0201B6EB0B0164EB00042B0D43EA12
:1004E0000C335E1844EB1C50DA465146E7FB020120
:1004F000C5F313044FEA0B3343EA14534FEA0432B3
:10050000019C43EA0603A4F10C040294009CCDE98B
:1005100000B400F0E7F803B0BDE8F08F002001461A
:10052000F9E72DE9F04D81EA030404F0004B21F0D6
:10053000004514464FF0000A23F0004150EA05023E
:1005400020D054EA01021DD0C5F30A570246C5F374
:100550001303C1F31300C1F30A5640F4801543F4AA
:100560008013A7EB0608101BD64608F2FD3873EB84
:10057000050002D308F1010801E092185B41B8F1CF
:10058000000F03DA00200146BDE8F08D00204FF493
:100590008011064684460EE0171B73EB050705D352
:1005A000121B63EB050306434CEA010C49084FEAB2
:1005B000300092185B4150EA0107EDD152EA030086
:1005C00012D082EA040083EA0501084305D0101B1B
:1005D000AB4106D20122002306E000224FF0004387
:1005E00002E06FF0010253101AEB06004CEB0851C9
:1005F00010EB0A0041EB0B01BDE8F04D00F063B8D1
:10060000C1F30A52C1F3130140F2FF3341F48011E8
:100610009A4202DA00200146704740F233439A4280
:10062000A2F2334202DC5242FFF7AEBD00F02AB81C
:1006300030B5041E71F1000404DB4FF00044404269
:1006400064EB0101141E73F1000405DB1C464FF03E
:100650000043524263EB0403994208BF904230BD0D
:10066000064C074D06E0E06840F0010394E80700FF
:1006700098471034AC42F6D3FFF76EFDC0800008F7
:10068000E0800008202A04DB203A00FA02F1002072
:1006900070479140C2F1200320FA03F319439040C0
:1006A0007047202A06DBCB17203A41FA02F043EAD2
:1006B000E07306E041FA02F3D040C2F1200291401B
:1006C00008431946704710B5141E73F1000408DA88
:1006D000401C41F1000192185B411A4301D120F006
:1006E000010010BD2DE9F04D92469B4611B1B1FAC3
:1006F00081F202E0B0FA80F220329046FFF7C2FFAA
:1007000004460F4640EA0A0041EA0B0153465A46A6
:10071000084313D0114653EA010019D0C8F1400232
:100720005046FFF731FD05460E46504659464246B3
:10073000FFF7A8FF084305D0012004E02046394612
:10074000BDE8F08D0020054346EAE0762C433743B0
:100750000A986305E40AA0EB08000022FD0A44EAB7
:1007600047540A3002D500200146E9E70105101977
:100770006941DDE9084500196941BDE8F04DA2E78E
:10078000FEE7000070B5054601F02CFA074C216821
:10079000401AB0F5FA7F07D301F024FA206028460A
:1007A000BDE8704000F004B870BD00000C000020EF
:1007B00030B5314C89B0054621780020012906D09A
:1007C000022917D0052900D1207009B030BD617809
:1007D00039B9012161706860A860E860284604F0BA
:1007E00023FA0220207025A005F0D3FC23A002F0FC
:1007F00079FEEAE7284604F059FA80B10320207018
:10080000281D05F05FFB024626A1684602F07AFE2D
:10081000694625A005F0BDFC694623A029E0686A69
:10082000807A0428D1D904202070284604F02CFABC
:10083000284805906FF07F4006902748079007AB47
:1008400006AA05A9284606F06BF9281D05F03AFB13
:10085000024614A1684602F055FE20A005F099FC5E
:100860001EA002F03FFE694621A005F092FC6946F9
:100870001FA002F037FEA8E72000002020205374BC
:100880006174653A204C6F6F6B696E6720666F729A
:10089000204448435020736572766572202E2E2EB8
:1008A0000A000000257300004950206164647265ED
:1008B00073732061737369676E6564206279206168
:1008C0002044484350207365727665723A20257340
:1008D0000A000000C0A801FCC0A801014448435020
:1008E0002054696D656F7574202121200A00000075
:1008F0005374617469632049502061646472657344
:10090000733A2025730A0000014800F017BA00006E
:100910007C01002070470000064908B509684FF4C3
:10092000FA52B1FBF2F14143009100BF491E009120
:10093000FBD208BD0000002038B50446006800F571
:100940008050816941F480118161206800F58050F8
:10095000806900900120FFF7DFFF2068009900F513
:100960008050816138BD0000014800F0A7BC000044
:10097000285200202DE9F041044621B14FF40060D7
:10098000E060C000A060E0690025002861D0284632
:100990002368402619683A4A1140D4E902273A43AD
:1009A000024342F400700843186020680768012081
:1009B00000F02AFB206807602068466020684668CF
:1009C000012000F021FB20684660206885602068D7
:1009D000C560216888694FF64172104040F0800080
:1009E000886120688669012000F00EFB206886611E
:1009F0002068C5612068C569012000F005FB2068FA
:100A0000C561226802F5805290691E4908401E495E
:100A100001439161206800F580508569012000F054
:100A2000F3FA206800F5805085612068174900F5C9
:100A300080500160206800F580500568012000F0BA
:100A4000E3FA206800F580500560A069012803D012
:100A500009E04FF480609BE7206800F58050C16991
:100A60000B4A1143C16160690A4982880A640278AD
:100A7000D0F8010042EA00204864BDE8F08100009F
:100A80000F8120FF233FDEF8040020020020C10276
:100A9000400001000080024030B585B000250446CA
:100AA000049500F0A9FF0A480121001BC00A039029
:100AB0000095CDE9011404A9684600F0FFFE044644
:100AC00000F050FF14B1012005B030BD0020FBE75D
:100AD0000000040810B500F08FFF03493420C860FF
:100AE000BDE8104000F03EBF002002402DE9F0417B
:100AF000164688460546002400F07EFF0E4F13E0A0
:100B000058F8242000232946022000F035FF10B1B8
:100B10000320BDE8F08158F824002968814201D003
:100B20000220F6E7641C2D1DB44201D2BD42E7D974
:100B300000F018FF0020ECE7FCFF03080649002046
:100B4000C8610648016941F004010161016941F091
:100B50004001016170470000785B002000200240E6
:100B6000064A0021D16106490A6942F002020A617F
:100B70004861086940F0400008617047785B0020D8
:100B800000200240044B0022DA61044A136943F05A
:100B90000103136101807047785B00200020024050
:100BA00014480022C168CB06134904D5CA6942F033
:100BB0000202CA611022C3685B0705D5CB6943F006
:100BC0000103CB6142F00402C369DB0707D0CB69A4
:100BD00043F00403CB61C16921F00101C161A2F5B9
:100BE0008071013901D0C2607047C16921F00101F3
:100BF000C161704700200240785B002070B5054657
:100C000000F0F0FF0646114C09E0681C07D025B142
:100C100000F0E8FF801BA84201D9032070BDE06806
:100C2000C007F2D1E068800601D52020E060E068CE
:100C3000C00605D4E069C00702D1E068400703D5CB
:100C4000FFF7AEFF012070BD002070BD0020024004
:100C50002DE9F74F002084B093460446804600906B
:100C6000019053E080284FD20D2803D000990F291E
:100C700008D00EE00020009008F110001FFA80F864
:100C8000019C3AE00021009108F11001019C1FFA3B
:100C900081F8202802D9203880B200E00020DFF857
:100CA0007CA000264FF0800902900298002506EBF8
:100CB000001700BF1AF8071029FA05F0014206D004
:100CC00008EB060081B2601980B2049A09E0DDE900
:100CD0000401884207D008EB060081B2601980B297
:100CE000059A00F01DF86D1CEDB2082DE2D3761CBC
:100CF000F6B2102ED9D30834A4B200980BF1010B30
:100D0000401CC0B2009001E00BF1010B9BF8000009
:100D10000028A7D107B0BDE8F08F00003A7800089E
:100D200010B514464A1C93B2421C92B202F0B6F8B7
:100D30002046BDE8104001F04DBF00002DE9F05FF6
:100D4000C16B0A6801680B68046C4FF0040808FA6C
:100D500004F8844D844E854FDFF814C2DFF81492F6
:100D6000DFF814A2DFF814B2DFF814E218EA020F79
:100D700065D05FEA437862D50A68920603D40A68B0
:100D800022F004020A60DFF8F0814FF4806201680B
:100D900008F1140813011402414524D9A9420DD0C9
:100DA000B1420FD0B9421AD0614515D0494515D08E
:100DB000514501D1120312E0594501D104220EE040
:100DC000714501D140220AE06D4D1435A94206D08B
:100DD0006B4A2832914201D11A4600E02246674907
:100DE000091F0A6029E0A94213D0B14215D0B942C7
:100DF00020D061451BD049451BD0514502D14FF44D
:100E0000800217E0414502D14FF0806212E059455F
:100E100001D104220EE0714501D140220AE0584D73
:100E20001435A94206D0564A2832914201D11A46B9
:100E300000E022464B4908394A60C16A71E04FF030
:100E4000020808FA04F818EA020F70D05FEA837803
:100E50006DD50A68920606D40A6822F00A020A6072
:100E6000012180F82110DFF810814FF40072016831
:100E700008F1140813011402414524D9A9420DD0E8
:100E8000B1420FD0B9421AD0614515D0494515D0AD
:100E9000514501D1120312E0594501D102220EE061
:100EA000714501D120220AE0354D1435A94206D002
:100EB000334A2832914201D11A4600E022462F4996
:100EC000091F0A6029E0A94213D0B14215D0B942E6
:100ED00020D061451BD049451BD0514502D14FF46C
:100EE000001217E0414502D14FF0007212E059455F
:100EF00001D102220EE0714501D120220AE0204DED
:100F00001435A94206D01E4A2832914201D11A4610
:100F100000E02246134908394A60002180F8201079
:100F2000816A00291CD0BDE8F05F0847FFE708256B
:100F3000A540154214D01A0712D50A6822F00E02F5
:100F40000A6090F84020C36B012101FA02F25A6056
:100F5000816380F82110002180F82010016BE0E708
:100F6000BDE8F09F080002401C0002403000024033
:100F700044000240580002406C0002400804024055
:100F80001C04024030B560B11C4A0368142193422E
:100F900009D21B4A1A44B2FBF1F1890001641949D4
:100FA0000AE0012030BD154A52421A44B2FBF1F169
:100FB0008900016411490839C163022180F82110B8
:100FC0001A6843F6F0718A43F0E901142143D0E92D
:100FD00002452C4321430469214344692143846928
:100FE000214311431960002141628162C1620163A2
:100FF0004163012242770177084630BD0804024070
:10100000F8FFFDBF0000024031B500F0EBFD009C91
:101010000546601C00D0641C00F0E4FD401BA042AB
:10102000FAD338BD2DE9F041054690F845000C464D
:10103000012875D0012685F84560022085F8440016
:10104000002C70D02A68116841480140D4E900039F
:101050001843D4E902373B431843AB68184323696C
:10106000184363691843EB681843A3691843E3699D
:101070001843236A1843636A1843A36A1843084352
:101080001060286807680120FFF7BEFF2868076026
:10109000D4E90B010843D4E90D1211430843E16B75
:1010A0000843216C0843616C0843A16C084329681C
:1010B0004860286847680120FFF7A6FF2868476056
:1010C0002968E06C88602968206DC8602A68916989
:1010D0004FF641700140D4E916031843B4F8547038
:1010E000236E43EA07431843636E1843A36E184305
:1010F00008439061286887690120FFF785FF286809
:101100008761D4E91B0108432968C8612868C4695C
:101110000120FFF779FF2868C46114E000E002E0D5
:101120000220BDE8F0812968086820F49042D5E9E2
:101130000203184310430860286804680120FFF781
:1011400063FF2868046005F8446F00206870E8E7D2
:101150000F8120FF2DE9F04390F845400025012C38
:101160000DD04FF0010C80F845C0022480F84440B7
:1011700044F2F4574FF000495E1E816217E00220EE
:10118000BDE8F08301EB0514C4F80090C5EBC51869
:1011900008EB480802EB8808C4E90178B54204D29C
:1011A00004F11008C4F80C8000E0E1606D1C9D4261
:1011B000E8D3026802F58052D16080F844C0002173
:1011C00080F845100846DBE72DE9F043914690F89A
:1011D00045200024012A0AD0012680F84560022219
:1011E00080F844204FF4801C5D1EC1621BE0022089
:1011F000BDE8F08301EB0412C2F800C0C4EBC417D1
:1012000007EB470809EB88079760C7691FB917689C
:1012100047F440071760AC4203D202F11007D760D1
:1012200000E0D160641C9C42E4D3026802F5805265
:10123000116180F84460002180F845100846D7E726
:10124000704710B590F84510012913D0012280F89D
:101250004520022180F84410816A0C680023002C8C
:1012600027DB0C68E40518D5846B641C8463012CAF
:1012700002D002E0022010BD016341630C68C4F398
:101280000D44241FC463046BA4680464C96840F857
:10129000281F02774377002010BD0C68A40503D5F2
:1012A0008263C0E90C1302E0846B641C8463C96828
:1012B000816200F8442F4370012010BD70B50446D0
:1012C000006800F5805041694FF0000549064FF075
:1012D000010608D5204600F0ABF92068402100F552
:1012E0008050416109E04069C0070AD0204600F003
:1012F000A8FA206800F58050466184F8446084F8BC
:10130000455020684FF4803100F5805041612068DD
:1013100000F58050406900040CD52046FFF790FF8F
:1013200020684FF4004100F58050416184F844602A
:1013300084F8455070BD00002DE9F8434FF00005DA
:101340000400A946009503D094F8440018B107E0C2
:101350000120BDE8F88384F84550204600F0BEF82F
:101360005948416821F4000141604168226A1143F3
:101370004160206800F58050016841F00101016082
:1013800000F030FC06464FF4FA7708E000F02AFC43
:10139000801BB84203D9032004F8440F57E02068AB
:1013A00000F580500068C007F0D12068006920F087
:1013B0001C0600F087FD4549454A0144914202D28E
:1013C00046F0080606E0434908444349884201D2F2
:1013D00046F00C06206806614FF4004200212046CA
:1013E00000F030FA0126A8BBFF20FFF70DFE606871
:1013F00088B300F0F7FB804641F288376A46012146
:10140000204600F0D3F800F0EDFBA0EB0800B84256
:1014100017D800984007F1D54FF48052002120469C
:1014200000F010FAB0B900F0DDFB80466A460121F9
:10143000204600F0BBF800F0D5FBA0EB0800B84256
:101440000AD901212046FFF795FA04F8446F0320DA
:1014500065707EE724E018E000988006E6D56A46CD
:101460001021204600F0A2F8D0B90098410703D51A
:101470004FF40061E16000E0E560800701D5A56000
:1014800019E04FF48040A06015E0E068A168C00852
:1014900040EA510082B20021204600F0D3F930B179
:1014A00001212046FFF766FA84F8446050E740F6D1
:1014B000FF70FFF7A9FD49462046FFF75BFA84F865
:1014C0004460002045E700000000014000D3CEFE4C
:1014D000C0E1E40040F1E9FD40787D01F0B500682D
:1014E0002B4985B0884251D12A48416941F4804155
:1014F0004161416901F480410491416941F4004135
:101500004161416901F400410491416941F4803134
:1015100041614069022400F4803000940326019464
:10152000CDE9036069461C4800F078FA00251B4F9E
:10153000CDE9004569463846029500F06FFA04206F
:10154000CDE9000469460396384600F067FA4FF487
:101550006050CDE9000469460396114800F05EFA38
:101560004FF4E060CDE9000569460E48029500F0B1
:1015700055FA0D48416841F40011416000221146BE
:101580003D2000F0B1FB3D2000F0A2FB05B0F0BD16
:10159000008002400010024000100140000801409D
:1015A000000C014000140140000001402DE9F0470B
:1015B000044690F84400914682281DD0822084F889
:1015C0004400226810694FF6FF7500F01C03208A62
:1015D00005EAC02018434FF4F86303EA8111014380
:1015E00021F0020040F00105156100F0FBFA06460B
:1015F00001274FF4803810E00220BDE8F08700BFDB
:1016000000F0F0FA801B404505D304F8447F002029
:1016100060700320F1E720680569E807F0D12068D1
:10162000406981B2C9F8001084F844700020E4E7F2
:101630007047F8B5044690F84500012839D00125D7
:1016400084F84550022084F8440020680026016890
:1016500041F0080101602068006800902846FFF70B
:101660005BF92168009808602068016841F0040176
:1016700001602068006800900120FFF74DF92168A3
:10168000009808602046FFF757F9206800F5805061
:10169000816941F400518161206800F580508169C1
:1016A00041F00201816184F8445084F845600020D3
:1016B000F8BD0220F8BDF8B5044690F845000128B1
:1016C00039D0012584F84550022084F84400206870
:1016D00000F58050816921F400518161206800F596
:1016E0008050816921F00201816120680026016833
:1016F00021F0040101602068006800900120FFF7DC
:101700000BF92168009808602046FFF715F920685A
:10171000016821F008010160206800680090012044
:10172000FFF7FAF821680098086084F8445084F8BC
:1017300045600020F8BD0220F8BDF0B590F84520C6
:101740000023012A11D0012780F84570022280F879
:101750004420002459B1C66A3268002A0ADA1221EC
:1017600000F8441F44700120F0BD0220F0BD00F8D5
:10177000447FF7E740F2F455A9420BD9B1FBF5FCE1
:10178000B1FBF5F205FB1C1CBCF1000F00D0521C94
:10179000012A43D1326842F040523260C26AC1F33A
:1017A0000C015160C16A0A6842F000420A60C16AD5
:1017B000C968C16234E0D6F800C02CF0405CC6F8BD
:1017C00000C033B9C66AD6F800C04CF0805CC6F8D9
:1017D00000C0C66A7560561EB34214D1C66AD6F8F8
:1017E00000C04CF0005CC6F800C0C2F10106C6EBB8
:1017F000C61606EB4606D0F82CC001EB8606C6F3EB
:101800000C06CCF80460C66AD6F800C04CF0004C58
:10181000C6F800C0C66A5B1CF668C6629342CAD3AB
:10182000016801F580514A69520705D504224A61D1
:10183000016801F580514C6000F8447F447000203D
:10184000F0BD70472DE9F041044690F8440042286D
:101850001ED0422084F84400236818694FF6FF76B2
:1018600000F01C05208A06EAC02028434FF4F865E2
:1018700005EA8111014390B241F0030558612068E7
:10188000056100F0AFF9064601274FF4803810E0FB
:101890000220BDE8F08100BF00F0A4F9801B4045A4
:1018A00005D304F8447F002060700320F1E720682E
:1018B0000569E807F0D184F84470EAE72DE9F047BC
:1018C000054626480F460126017E01290FD0012139
:1018D000814601762868DFF888804CF2503402286F
:1018E00008D0A2462046FFF789F9A8B131E00220CE
:1018F000BDE8F0872046FFF781F908BB0120FFF71C
:101900001DF92046FFF77AF9D8F81010064621F0A5
:101910000401C8F810101CE04FF0FF303860AC68CC
:1019200011E02046FFF71CF95046FFF767F9D8F899
:101930001010060021F00201C8F8101001D03C6020
:1019400007E004F50064D5E9020100EBC120A042E4
:10195000E7D8002189F818103046C9E7785B0020E5
:10196000002002400348016941F08001016100202C
:1019700070470000002002402DE9F05F07461C4838
:1019800088460024017E15461E46012909D0012102
:10199000814601764CF2503A5046FFF72FF918B1C4
:1019A00022E00220BDE8F09F012F02D0022F00D0DC
:1019B0000427D346DFF83CA0220128463146FEF733
:1019C000E3FB81B208EB4400FFF7DCF85846FFF771
:1019D00015F9DAF8102022F00102CAF8102018B91F
:1019E000641CE4B2BC42E7D3002289F81820D9E78E
:1019F000785B00200020024005480169090605D5F2
:101A0000044941600449416000207047012070474B
:101A10000020024023016745AB89EFCD2DE9F84F47
:101A2000DFF890A100220AF1040B144601274FF0C1
:101A30000F090BF1040E00BF0B6807FA04F52B40E9
:101A4000AB4274D1DFF870C14E68A6EB0C08664556
:101A50002BD00DDC032E34D005DC36B3012E19D08B
:101A6000022E2FD11BE0112E16D0122E2AD119E0F2
:101A7000B8F5881F19D006DCB8F5803F15D0B8F549
:101A8000801F1FD111E0B8F5001F0ED0B8F5041F5C
:101A900018D10AE0CA6815E0CA68121D12E0CA68C7
:101AA00008320FE0CA680C320CE08A682AB1012AB9
:101AB0004FF0080203D0456104E0042202E0056112
:101AC00000E00022FF2B01D8064601E000F10406E9
:101AD0004FEA840501D9A5F12005D6F800C009FA1E
:101AE00005F82CEA080C02FA05F54CEA050CC6F8D4
:101AF00000C04D68ED0057D5304DAE6946F0010687
:101B0000AE61AD6924F0030605F0010500952C4D8A
:101B100006EB050CDCF80850A6074FEA167809FA20
:101B200008F6B543274EB04202D1002610E03BE054
:101B3000254EB04201D101260AE0244EB04201D127
:101B4000022605E0224EB04201D1032600E0042621
:101B500006FA08F62E43CCF808604D68DAF8006003
:101B6000ED03554601D51E4300E09E432E604D68AF
:101B7000DBF80060AD035D4601D51E4300E09E43E7
:101B80002E604D68DEF80060ED02754601D51E43FB
:101B900000E09E432E604D68AD020E4D2E6801D5CB
:101BA0001E4300E09E432E60641C102CFFF444AFE3
:101BB000BDE8F88F00040140000011100010024041
:101BC0000000014000080140000C014000100140ED
:101BD000001401400C0401400AB10161704709047E
:101BE000FBE7000001480068704700007C0000200F
:101BF00002480168491C0160704700007C00002019
:101C0000074810B5016841F010010160032000F0A1
:101C10008BF8002000F006F800F018F8002010BD46
:101C20000020024010B5044607484FF47A7100685E
:101C3000B0FBF1F000F017FD00222146501E00F02D
:101C400053F8002010BD0000000000201E4808B519
:101C5000816941F001018161806900F0010000901B
:101C6000032000F061F8002211466FF00B0000F035
:101C70003BF8002211466FF00A0000F035F8002210
:101C800011466FF0090000F02FF800221146501F96
:101C900000F02AF800221146101F00F025F800225B
:101CA0001146901E00F020F800221146501E00F050
:101CB0001BF80648416821F0E0614160416841F04D
:101CC0000071416008BD00000010024000000140AA
:101CD00000F01F02012191404009800000F1E02046
:101CE000C0F8001170470000F0B40E4B1B680C46A2
:101CF000C3F30223C3F10705042D00D90425191DE0
:101D0000072901D2002300E0DB1E012606FA05F1B7
:101D1000491E214099409E40761E16403143F0BC3A
:101D200001F0EEB90CED00E0064900F0070208688A
:101D30004FF6FF03184040EA0220034A10430860B0
:101D4000704700000CED00E00000FA05BFF34F8F74
:101D500005480168054A01F4E06111430160BFF3E1
:101D60004F8F00BFFDE700000CED00E00400FA0516
:101D70002DE9F047DFF83C8105460E46D8F8000013
:101D800000F00700B0420CD2D8F8001021F0070193
:101D90003143C8F80010D8F8000000F00700B04246
:101DA00063D12878444C800705D56068A96820F085
:101DB000F000084360602878C00745D068680128B3
:101DC00016D02168022816D0890700294DDA6168EB
:101DD00021F0030101436160FFF704FF69680746D2
:101DE00041F2883001290FD00229814619D027E01D
:101DF00021688903E9E78901E7E700BFFFF7F2FE01
:101E0000C11B494501D918E081466068C0F38100D3
:101E10000128F3D118E000BFFFF7E4FEC11B4945DC
:101E20000BD86068C0F381000228F5D10CE000BF38
:101E3000FFF7D8FEC11B494502D90320BDE8F08752
:101E4000606810F00C0FF3D1D8F80010404601F094
:101E50000701B1420BD9016821F00701314301604C
:101E6000006800F00700B04201D00120E6E72878C2
:101E7000400705D56068E96820F4E06008436060C9
:101E80002878000706D56068296920F4605040EA88
:101E9000C100606000F03CF86168084AC1F30311BA
:101EA000515CC840064908600020FFF7BBFE0020D7
:101EB000C4E7000000200240001002402278000821
:101EC000000000200148006870470000000000206A
:101ED0000448054900684968044AC1F30221515C7D
:101EE000C84070470000002000100240327800080F
:101EF0000448054900684968044AC1F3C221515C9D
:101F0000C8407047000000200010024032780008EE
:101F100010B51DA288B00FCA04AC84E80F001EA340
:101F20000FCB8DE80F0020494B68204803F00C02CE
:101F3000042A02D0082A02D01D4808B010BD04AA05
:101F4000C3F38344DB03125D1BD5CB6ACC6A03F079
:101F50000F031DF80330E4030AD5CC6AC96AC4F341
:101F60000314641CB0FBF4F0C1F30321891C484343
:101F7000B0FBF3F09DF81D1050439142DDD14008B5
:101F8000DBE70C485043D8E70000040506070809C2
:101F900000000000000D0000010203040506070810
:101FA000090A0B0C0D0E0F100010024040787D0145
:101FB00000127A0000093D0030B585B00020029083
:101FC00002200190032003900B4C4FF4807000908E
:101FD000A0690D4640F00400A061A069694600F0C8
:101FE000040004900548FFF719FD606820F0706058
:101FF0002843606005B030BD001002400008014079
:102000002DE9F84F04460078EA4DC00748D06868CB
:10201000C0F38100012807D06868C0F3810002285E
:1020200009D16868C00306D52868800338D5A06840
:1020300000286FD034E0A068B0F5803F0BD010B11D
:10204000B0F5A02F11D0286820F4803028602868CF
:1020500020F4802002E0286840F480302860A068E6
:1020600088B1FFF7BFFD064609E0286840F48020EC
:102070002860F0E7FFF7B6FD801B642878D8286851
:102080008003F7D50CE0FFF7ADFD064605E000BF85
:10209000FFF7A8FD801B6428F0D828688003F7D4D8
:1020A0002078C54E80074FF001094FF000073CD55E
:1020B000686810F00C0F07D06868C0F38100022830
:1020C00009D16868C00306D42868800715D56069FF
:1020D00001281FD111E06069B8B1C6F80090FFF780
:1020E00081FD804606E000BFFFF77CFDA0EB080005
:1020F0000228C3D828688007F6D52868A16920F08F
:10210000F80040EAC10028600FE03760FFF76AFD81
:10211000804607E02DE100BFFFF764FDA0EB08005B
:102120000228ABD828688007F6D4207800072ED57F
:10213000A248E169E9B1C0F80090FFF753FD80467D
:1021400006E000BFFFF74EFDA0EB0800022895D87F
:10215000686A8007F6D59A484FF4FA510068B0FBD8
:10216000F1F0009000BF0098411E0091FAD20EE0FD
:10217000B0E00760FFF736FD804605E0FFF732FD6F
:10218000A0EB0800022887D8686A8007F6D4207878
:10219000400763D5E8694FF00008C00009D4E8693A
:1021A00040F08050E861E8694FF0010800F080508D
:1021B000009084480168C90512D40168834641F43F
:1021C00080710160FFF70EFD824605E0FFF70AFD12
:1021D000A0EB0A0064287DD8DBF80000C005F5D527
:1021E000206901280AD008B1052813D0286A20F0F8
:1021F00001002862286A20F0040002E0286A40F00A
:1022000001002862206941F2883B98B1FFF7EAFC9F
:1022100082460BE0286A40F004002862EEE700BF27
:10222000FFF7E0FCA0EB0A01594553D8286A800764
:10223000F6D50CE0FFF7D6FC824605E0FFF7D2FCAE
:10224000A0EB0A01594545D8286A8007F6D4B8F1B1
:10225000000F03D0E86920F08050E861E06AD0B355
:102260006968C90307D56968C1F38101022902D1F0
:10227000E96AC9037DD4022808D0E86A20F48030D6
:10228000E862B766FFF7AEFC80463BE02868C00016
:1022900005D5E86A616B00F0F000884269D1B76645
:1022A000FFF7A0FC804605E0FFF79CFCA0EB0800D0
:1022B000642874D828680001F6D4E86A616B20F0BD
:1022C000F0000843E862E86A216B20F4706008437C
:1022D000E86201E063E018E0C6F86890FFF782FC6E
:1022E000804605E0FFF77EFCA0EB0800642856D886
:1022F00028680001F6D508E0FFF774FCA0EB0800A1
:1023000064284CD828680001F6D4206A90B3696824
:10231000C1F3810102294AD00228376603D0FFF7B2
:1023200061FC04463EE0FFF75DFC074605E000BFA8
:10233000FFF758FCC01B022831D828688001F7D469
:10234000606AB0F5803F09D1E86A61680843E862D5
:10235000E86AE16820F00F000843E862D4E9090167
:102360000843696821F4741108436860C6F86090F6
:1023700001E01CE019E0FFF735FC044605E000BF72
:10238000FFF730FC001B022809D828688001F7D528
:102390000BE000BFFFF726FC001B022802D9032038
:1023A000BDE8F88F28688001F4D40020F8E7012008
:1023B000F6E7000000100240000042428004424262
:1023C000000000200070004070B5040005D000251A
:1023D000A56294F8510010B104E0012070BD2046C0
:1023E00000F034F8022084F851002068016821F0E0
:1023F00040010160D4E901010843D4E9031211430B
:10240000084361690843218B01F400710843E169C5
:102410000843216A0843A16A084321680860A0694B
:10242000042101EA1040616A08432168486021687C
:10243000E06A08612068C16921F40061C1616565D5
:10244000012084F85100002070BD000030B5054621
:102450000068184985B0884229D11748816941F43C
:10246000805181618069694600F480500490A02009
:10247000009002200190032003901048FFF7CEFA4D
:10248000104C0F48002120601020C4E90101802079
:10249000C4E903016161A1612046E161FEF772FDBB
:1024A00018B1812108A001F01BF8AC64656205B089
:1024B00030BD000000300140001002400008014023
:1024C000300002407C0100202E2E2F5372632F73A8
:1024D000746D3332663178785F68616C5F6D7370EC
:1024E0002E6300002DE9F84F044690F850000026B6
:1024F000994617460D4601280DD04FF0010B84F880
:1025000050B0FFF76FFB804694F85100B2460128A7
:1025100004D0022694E00220BDE8F88F002D7BD085
:10252000002F79D0032084F85100C4F854A025630B
:10253000A786E786C4F838A0A4F83CA0A4F83EA07B
:10254000C4F844A0C4F840A0A068B0F5004F04D17E
:102550002068016841F480410160206801684906F3
:1025600003D4016841F040010160E068B0F5006FFC
:10257000606804D030B3E08E012823D03EE010B173
:10258000E08E01281AD135F8021B206805E020688A
:102590008168890706D535F8021BC160E08E401EB0
:1025A000E0860BE0B9F1000F34D0B9F1FF3F05D060
:1025B000FFF718FBA0EB080149452BD2E08E00285D
:1025C000E5D11EE0216815F8010B087306E02068CC
:1025D0008168890706D515F8011B0173E08E401E3E
:1025E000E0860BE0B9F1000F14D0B9F1FF3F05D040
:1025F000FFF7F8FAA0EB080149450BD2E08E00285E
:10260000E5D14B46012202212046CDF8008000F0A2
:1026100098FD10B1032613E011E0424649462046DA
:1026200000F07FFD18B101262020606508E0A06859
:1026300018B92068C16880680090606D00B10126FB
:1026400084F851B084F850A0304665E74FF0E0219F
:102650000428086903D020F004000861704740F0A6
:102660000400FAE7704710B5401EB0F1807F01D337
:10267000012010BD4FF0E02460610F21601700F0D1
:102680003FFD0020A06107202061002010BD10B593
:10269000FFF7E8FF10BD70B5040004D094F83900CE
:1026A000002510B106E0012070BD84F838502046A6
:1026B00000F022F8242084F839002068C16821F451
:1026C0000051C160204600F00FFE2068016921F42E
:1026D000904101612068416921F02A01416120682F
:1026E000C16841F40051C160E563202084F83900DD
:1026F00084F83A00002070BD10B50068134986B018
:10270000884221D11248C16941F40031C161C069D8
:10271000104C00F400300490202000900220019022
:102720000320039069462046FFF778F900214020F6
:10273000CDE90001029169462046FFF76FF906488E
:10274000416841F00801416006B010BD00440040FE
:10275000001002400014014000000140FEE70000AC
:1027600010B50446084604F07BF8204604F0E4FD6A
:10277000204604F0F3FE0548002203498068BDE8C6
:10278000104004F0E7BE000051280008240000209B
:10279000408803F043BE00002DE9F047814616460D
:1027A00088464FF40A7004F08BF8040028D0022009
:1027B0002060D8F80000C4F80C020025C4E9846544
:1027C000224615494846C4F8185204F0C3FE134F78
:1027D0003D60FEF77FF9124D2846FEF75DF97D60FA
:1027E000324641464846D4F8143200F0C3F80DA0F2
:1027F00003F0CFFC0BA000F075FE0020BDE8F087D1
:102800000FA003F0C6FC0EA000F06CFE2146484667
:10281000FFF7A6FFF1E70000452A0008240000208A
:1028200000000108202053746174653A2050726FD3
:102830006772616D6D696E672E2E2E200A00000092
:102840004D656D6F7279206572726F72200A00009B
:10285000F0B597B01E4615461C9F04F059FE0400C3
:1028600004D00022264904F0CFFC38B125A003F0A3
:1028700090FC24A000F036FE17B0F0BD69684878DF
:10288000022806D025A003F084FC24A000F02AFE34
:1028900028E00022891C00E0521C885C0028FBD143
:1028A0000CA8521CFDF7B6FC21A003F072FC20A07E
:1028B00000F018FE0CAA23A1684600F023FE69462A
:1028C00023A003F066FC694621A000F00BFE21A0C6
:1028D00003F05FFC1FA000F005FE24A10CA8FDF78B
:1028E000A5FC30B1204604F039FE284604F00AFB6E
:1028F000C2E73A4631462046FFF74EFFF5E70000B3
:102900008C80000843616E206E6F74206372656175
:10291000746520706362200A000000004261642038
:1029200054465450206F70636F6465200A000000A5
:10293000494150207573696E672054465450200AEF
:102940000000000046696C653A2025730000000015
:1029500025730A00202053746174653A2045726122
:1029600073696E672E2E2E0A000000006170702EB3
:1029700062696E002DE9F0410E4600248046042174
:1029800064F30704154661F30F2498B203F046FD83
:1029900060F31F4403220421002004F059F90700CA
:1029A0000ED07868ABB2324604603946404604F037
:1029B000F5FD0446384604F0A5FA2046BDE8F0814E
:1029C00004A003F0E6FB03A000F08CFD4FF0FF3005
:1029D000F4E7000043616E206E6F7420616C6C6FD1
:1029E0006361746520706275660A000010B504F0BA
:1029F0008FFD0B4CA06020B145220A4904F004FC75
:102A000038B109A003F0C5FBBDE8104006A000F0F6
:102A100069BDA068BDE810400022094904F09ABDD4
:102A2000240000208C80000843616E206E6F7420AB
:102A300063726561746520706362200A00000000A3
:102A4000512800082DE9F047ADF50A7D8946044676
:102A500050891189DDF848A298461546884209D068
:102A60003FA003F096FB3EA000F03CFD0DF50A7D73
:102A7000BDE8F087404E042834D96868FFF788FE27
:102A8000D4F81412491C88422CD168890423001FF1
:102A900082B26946284604F001FA69893068001F4D
:102AA00008443060081FC21700EB9270C0F38F0714
:102AB000880701D07F1CBFB23A4669467068FEF7AE
:102AC00015F8706800EB87007060D4F81402401CA1
:102AD000C4F814026989D4F818020844001FC4F825
:102AE00018020AE06868FFF753FE0146D4F81402A2
:102AF000401C814201D1C4F8140252464146484666
:102B0000D4F81432FFF736FF6889B0F5017F22D27E
:102B100021464846FFF724FE284604F0F3F93268C0
:102B200016A180A800F0EEFC80A917A003F031FBED
:102B300080A915A000F0D6FC1AA003F02AFB19A06A
:102B400000F0D0FC1EA003F024FB1DA000F0CAFC86
:102B5000FFF7FCF8FEE7284604F0D4F986E700000A
:102B6000496E76616C69642064617461206C656E85
:102B70006774680A000000002400002025642062B9
:102B80007974657320000000546F74206279746555
:102B9000732052656365697665643A2C2025730A53
:102BA00000000000202053746174653A2050726F59
:102BB000672046696E6973686564200A000000003A
:102BC00052657365742074686520626F6172642059
:102BD0000A00000070B50C4D044600224021284632
:102BE000FEF7FAFF012211020848FEF7F5FF200A5E
:102BF00004F06CFAE0B204F069FA2846BDE87040CF
:102C000001224021FEF7E8BF000801400018014002
:102C100070B5064600219F237F22084600F03EF94A
:102C20002C2000F085F9002400253046FFF7D2FF64
:102C30006D1CA02DF9D3641C802CF5D370BD000051
:102C400010B500F015F9112000F072F9782001F0AC
:102C500021F9B12000F06CF9012000F04DF92C2091
:102C600000F04AF92D2000F047F9B22000F060F999
:102C7000012000F041F92C2000F03EF92D2000F059
:102C80003BF9B32000F054F9012000F035F92C2075
:102C900000F032F92D2000F02FF9012000F02CF97E
:102CA0002C2000F029F92D2000F026F9B42000F0A6
:102CB0003FF9072000F020F9C02000F039F9A220E8
:102CC00000F01AF9022000F017F9842000F014F93E
:102CD000C12000F02DF9C52000F00EF9C22000F04F
:102CE00027F90A2000F008F9002000F005F9C320B8
:102CF00000F01EF98A2000F0FFF82A2000F0FCF80E
:102D0000C42000F015F98A2000F0F6F8EE2000F05B
:102D1000F3F8C52000F00CF90E2000F0EDF8362095
:102D200000F006F9C02000F0E7F8E02000F000F91C
:102D30000F2000F0E1F81A2000F0DEF80F2000F07C
:102D4000DBF8182000F0D8F82F2000F0D5F8282064
:102D500000F0D2F8202000F0CFF8222000F0CCF8CC
:102D60001F2000F0C9F81B2000F0C6F8232000F057
:102D7000C3F8372000F0C0F8002000F0BDF80720AD
:102D800000F0BAF8022000F0B7F8102000F0B4F814
:102D9000E12000F0CDF80F2000F0AEF81B2000F08D
:102DA000ABF80F2000F0A8F8172000F0A5F83320AA
:102DB00000F0A2F82C2000F09FF8292000F09CF8E9
:102DC0002E2000F099F8302000F096F8302000F026
:102DD00093F8392000F090F83F2000F08DF80020A3
:102DE00000F08AF8072000F087F8032000F084F84C
:102DF000102000F081F82A2000F09AF8002000F05E
:102E00007BF8002000F078F8002000F075F87F20B3
:102E100000F072F82B2000F08BF8002000F06CF826
:102E2000002000F069F8002000F066F89F2000F014
:102E300063F8F02000F07CF8012000F05DF8F62047
:102E400000F076F8002000F057F83A2000F070F813
:102E5000052000F051F8292000F06AF80122BDE8B1
:102E6000104051020148FEF7B7BE000000180140B3
:102E700010B5094C002280212046FEF7ADFE6420EB
:102E800001F008F8012280212046FEF7A5FEBDE8EA
:102E90001040322000F0FEBF001801402DE9F04143
:102EA00007461C4615460E462A2000F041F8002031
:102EB00000F022F8BF1CF8B200F01EF8002000F06D
:102EC0001BF8AD1CE8B200F017F82B2000F030F82A
:102ED000002000F011F8761CF0B200F00DF8002090
:102EE00000F00AF8641CE0B200F006F8BDE8F0411A
:102EF0002C2000F01DB8000070B50B4C05460022D8
:102F000040212046FEF768FE012211020748FEF725
:102F100063FE284604F0DAF82046BDE8704001223E
:102F20004021FEF759BE0000000801400018014092
:102F300070B50B4C0546002240212046FEF74CFEA2
:102F40000022A1150748FEF747FE284604F0BEF808
:102F50002046BDE8704001224021FEF73DBE000042
:102F60000008014000180140F0B52D4885B0816986
:102F700041F010018161816901F0100104918169C2
:102F800041F004018161816901F0040104918169CA
:102F900041F040018161816901F040010491816942
:102FA00041F008018161816901F0080104918169A2
:102FB00041F02001816180691A4E00F020000490E8
:102FC000012240213046FEF707FE174F00228021E4
:102FD0003846FEF701FE01224FF463413846FEF702
:102FE000FBFD40200125CDE900050324694603943B
:102FF0003046FEF713FD4EF28030CDE900056946FC
:1030000003943846FEF70AFD280200900220019042
:10301000694603943046FEF701FD05B0F0BD00009F
:103020000010024000080140001801400EB503F0F6
:10303000F7F915490020164A0860091D124B08606F
:10304000091D08330860CDE90002104902911A1FDA
:10305000111F104803F02CFD0E4803F085FD0D48AC
:1030600090F8330040070B4802D503F0E3FD01E080
:1030700003F080FD0849074803F0AAFDBDE80E40B3
:10308000044801F0D1BD000010000020F9520008F2
:10309000E5530008C00900202155000810B5064876
:1030A00002F0B4F904F028F8034802F00DFABDE884
:1030B00010400148FDF766BBC00900200E4810B55E
:1030C0000C4901604FF48271416000218160C16050
:1030D0004FF400720161C0E905120822C0E907211E
:1030E000416281620A21C162FFF76EF9002800D0B7
:1030F000FEE710BD00300140E4000020FEE770470D
:103100000907090E002806DA00F00F0000F1E020A0
:1031100080F8141D704700F1E02080F8001470471B
:10312000704738B50B46009204460022802100F01B
:1031300008F8002804D0606D40F02000606503208E
:1031400038BD2DE9F0411D4617460E460446DDF810
:10315000188035E0681C33D02DB1FEF743FDA0EB9D
:103160000800A8422CD32068416821F0E0014160AA
:103170006068B0F5827F0BD1A068B0F5004F02D037
:10318000B0F5806F04D12068016821F04001016032
:10319000A06AB0F5005F0AD1206801684DF6FF72A1
:1031A000114001602068016841F400510160012074
:1031B00084F85100002084F850000320BDE8F0811D
:1031C0002068806836EA000004D00020B842C1D1EF
:1031D0000020F3E70120F9E7704710B5FEF708FD7E
:1031E000BDE81040FFF753BA30B593B0012528046D
:1031F0000421CDE902010224CDE9084000950190A7
:1032000005954FF4E010CDE90A044FF4C0600C902E
:1032100040200D906846FEF7F3FE00B1FEE70F2058
:10322000CDE90E0400204FF48061CDE91001129029
:1032300002210EA8FEF79CFD00B1FEE700224FF030
:1032400030611046FEF7B8FEFEF73CFE4FF47A718F
:10325000B0FBF1F0FFF707FA0420FFF7F7F90B488E
:10326000C16A21F0F00141F04001C162C16A21F45C
:10327000704141F40041C1620548056700221146D2
:10328000501EFEF731FD13B030BD000000100240AB
:10329000000042421048016841F0010101604168AC
:1032A0000E4A1140416001680D4A114001600168F9
:1032B00021F480210160416821F4FE014160016830
:1032C00021F0A05101604FF47F0181600021C162B3
:1032D0000449C00308607047001002400000FFF07E
:1032E000FFFFF6FE08ED00E02DE9F041044600681E
:1032F0000169E26821F44051114301612169A0682C
:103300000843616908432168CA6841F20C639A4323
:103310000243CA6020684169A26921F440711143E7
:1033200041614C4920686425322688423CD1FEF731
:10333000DFFD00EBC00101EB001061688900B0FB0C
:10334000F1F7FEF7D5FD00EBC00101EB001061685D
:10335000B0468900B0FBF1F0B0FBF5F06FF018015A
:10336000484307EB800106EB0110B0FBF5F000F0DD
:10337000F006FEF7BDFD00EBC00101EB0010616837
:103380008900B0FBF1F0B0FBF5F006EB0016FEF79C
:10339000AFFD00EBC00101EB001061688900B0FBDC
:1033A000F1F7FEF7A5FD3BE0FEF792FD00EBC00153
:1033B00001EB001061688900B0FBF1F7FEF788FDB2
:1033C00000EBC00101EB00106168B0468900B0FB62
:1033D000F1F0B0FBF5F06FF01801484307EB800106
:1033E00006EB0110B0FBF5F000F0F006FEF770FD03
:1033F00000EBC00101EB001061688900B0FBF1F047
:10340000B0FBF5F006EB0016FEF762FD00EBC00125
:1034100001EB001061688900B0FBF1F7FEF758FD81
:1034200000EBC00101EB001061688900B0FBF1F016
:10343000B0FBF5F06FF01801484307EB800108EB93
:103440000110B0FBF5F0216800F00F0030448860F7
:10345000BDE8F08100380140FEE7000010B590F8AB
:103460003300C107094806D00121017008A002F00D
:1034700090FE07A005E0052101700FA002F089FE73
:103480000DA0BDE8104000F02DB800002000002085
:10349000202053746174653A204C6F6F6B696E67BE
:1034A00020666F72204448435020736572766572BF
:1034B000202E2E2E0A000000546865206E65747759
:1034C0006F726B206361626C65206973206E6F742C
:1034D00020636F6E6E6563746564200A00000000EF
:1034E000FEE700000FB4054B10B503A9044A02988B
:1034F00000F0F0F810BC5DF814FB0000D155000896
:10350000E00000200FB4084B10B504A902AA0398EC
:1035100000F0E0F8044602A9002000F072FC20460A
:1035200010BC5DF814FB0000033E000837B51446DC
:103530000846064B6A46214600F0CCF80446694628
:10354000002000F05EFC20463EBD0000033E000867
:1035500002E008C8121F08C1002AFAD1704770475C
:10356000002001E001C1121F002AFBD170470000BA
:103570002DE9FF5FDDE90220010DDDF838B00243DF
:1035800018D044F61050A1F2FF3141430D140F98AA
:10359000012820D0A5EB0B00401C5FEA000A4FF089
:1035A0000004474EDFF81C91A046504616D5CAF1DC
:1035B000000728E00F98012443A2012808D0002129
:1035C00000980F9BC0E90021C0E90243BDE8FF9FBE
:1035D0006FEA0B01F4E7CBF10000DEE7074612E0EB
:1035E000F80707D02246334640464946FCF727FFF6
:1035F000804689462246334610461946FCF71FFF8F
:1036000004460E467F10002FEAD1DDE90201BAF12F
:10361000000F42464B4602DAFCF711FF01E0FCF7CF
:1036200080FF04460E460022284BFDF701F803D820
:103630004FF0FF30014607E00022254B204631467F
:10364000FCF756FEFCF7DCFF102409E0002C0ADB37
:103650000A220023FCF71BFE019B30321A55641E20
:1036600050EA0102F2D1641C019AC4F1110314441E
:103670000F9A012A03D0012208430DD10AE0084322
:1036800004D000204FF0110B0F9080E7A3EB0B0547
:103690006D1E0DE05B4504DD4FF0000205F10105F4
:1036A00004E003DA4FF00002A5F10105002AECD096
:1036B00000980F99C0E90231C0E9004586E7000093
:1036C000000024400000F03F300000000000F04304
:1036D0000000E03F2DE9FF4F95B09B468946064626
:1036E00000250FE2252877D100242746F84A01213A
:1036F000059400E0044316F8013F203B01FA03F073
:103700001042F7D130782A2811D06FF02F0330788B
:10371000A0F13002092A16D8059A44F0020402EBFF
:10372000820203EB42021044761C0590EFE759F841
:10373000042B0592002A03DA504244F40054059009
:1037400044F00204761C30782E2816D116F8010FAA
:1037500044F004042A280DD06FF02F023078A0F135
:103760003003092B09D807EB870302EB4303C71883
:10377000761CF3E759F8047B761C30786C280FD060
:1037800006DC4C2817D068280DD06A2814D104E034
:10379000742810D07A280FD10DE044F400140AE008
:1037A00044F4801401E044F440147278824202D15F
:1037B00004F58014761C761C307866280BD013DC58
:1037C000582877D009DC002875D04528F6D046283F
:1037D000F4D047281AD19DE118E0632835D0642839
:1037E00079D0652812D195E1702873D008DC67285C
:1037F000F1D069286FD06E280DD06F2806D1B5E0C2
:1038000073282CD0752875D0782874D05A4617990B
:1038100090476D1C75E1C4F30250022809D00328BB
:103820000DD0D9F8001004280DD00D6009F104095D
:1038300067E1D9F80010EA17C1E90052F6E7D9F8B4
:1038400000100D80F2E70D70F0E719F8041B8DF8F9
:10385000001000208DF80100EA46012003E059F82D
:1038600004AB4FF0FF3061074FF0000102D40DE0D0
:1038700008F101018846B9420FDA8045F8DB1AF8F1
:1038800008100029F4D108E008F1010188468142BE
:10389000FADB1AF808100029F6D105985B46A0EB70
:1038A000080721463846179A00F094FA284400EB9E
:1038B000080507E04DE029E10DE01AF8010B5A4632
:1038C00017999047B8F10108F7D25B462146384670
:1038D000179A13E142E00A220092C4F302524FF019
:1038E000000A022A08D059F804CB032A4FEAEC71E7
:1038F0000AD00DE029E02AE009F1070121F00702D2
:10390000F2E802C1914609E00FFA8CFC4FEAEC7133
:10391000042A03D14FFA8CFC4FEAEC71002907DA34
:103920000A460021DCF1000C61EB02012D2202E0CD
:10393000220504D52B228DF80420012203E0E207A2
:1039400001D02022F7E7904659E00A2102E0102238
:103950000DE010214FF0000A00910BE010224FF013
:10396000000A44F004040827009203E008224FF004
:10397000000A0092C4F30252022A05D059F804CB7F
:103980000021032A08D009E009F1070121F007020C
:10399000F2E802C1914605E01FFA8CFC042A01D12D
:1039A0000CF0FF0C4FF00008220728D5702806D035
:1039B000009B83F0100353EA0A0305D00EE0402277
:1039C0008DF80420012208E05CEA010206D03022D2
:1039D0008DF804208DF8050002229046009B83F0AC
:1039E000080353EA0A030AD15CEA010201D1620723
:1039F00005D530228DF804204FF001087F1E58288D
:103A000004D034A003900EA802900DE036A0F9E790
:103A100053466046009AFCF73AFC84460398825C61
:103A20000298401E029002705CEA0100F0D10298F8
:103A300006A9081A00F1200A600702D524F4803490
:103A400000E00127574502DDA7EB0A0000E0002057
:103A500000EB0A01009005984144401A0590E003EC
:103A600006D45B462146179A059800F0B3F9054441
:103A7000002706E001A85A46C05D179990476D1CC3
:103A80007F1C4745F6DBE0030CD55B462146179AC1
:103A9000059800F09FF9054404E030205A46179934
:103AA00090476D1C0099481E00900029F5DC08E045
:103AB000029802995A460078491C0291179990473A
:103AC0006D1CBAF10001AAF1010AF1DC65E1000008
:103AD00009280100303132333435363738396162E4
:103AE00063646566000000003031323334353637A8
:103AF00038394142434445460000000000F058F97F
:103B00000544761C307800287FF4ECAD19B02846C7
:103B1000BDE8F08F620700D4062709F1070222F002
:103B2000070CFCE80223E14603F000485FEA080CBA
:103B300002D00FF2702C0DE05FEA045C02D50FF2A8
:103B4000682C07E05FEAC47C02D00FF2602C01E031
:103B5000AFF2700C4FF0FF3823F00043CDF850C0A7
:103B600065280CD006DC452809D046281DD04728FA
:103B70003DD13DE0662818D067287ED138E000218D
:103B8000112F01DB112000E0781CCDE9000106A90E
:103B90000EA8FFF7EDFCDDE90F010E9A039100215D
:103BA000009207F1010A04914DE04FF000400097A8
:103BB000CDE9011006A90EA8FFF7DAFCDDE90F0236
:103BC00003920E9B11990022DDF80CA00093049241
:103BD00011B9791C00EB010AB7EB0A0004D4C0F15B
:103BE000FF3007F1010A0490AAEB0700019044E0BE
:103BF000012F00DA01270021112F01DD112000E043
:103C00003846CDE9000106A90EA8FFF7B1FCDDE9B1
:103C10000F010E9A0391002104910092BA462107E8
:103C20000CD40399514500DA8A46BAF1010F05DD3B
:103C3000009AAAF10101515C302908D0B84202DA99
:103C400010F1040F06DA0121CDE9011015E0AAF107
:103C50000101E9E7002805DC049901440491AAEB7D
:103C6000000102E0411C514500DD8A460499401ADA
:103C7000401C01904FF000400290200704D40198AE
:103C8000504501DBCDF8048000208DF84F000298EC
:103C90000DF14F07B0F1004F25D02B200E90029868
:103CA0004FF0020800280CDA404202902D200E90BE
:103CB00007E00A210298FCF7D4FA3031029007F8A5
:103CC000011DB8F10001A8F10108F2DC02980028FA
:103CD000EFD1791E0E980870307800F0200040F087
:103CE000450007F8020D12A8C01B00F10708149840
:103CF000007800B1012000EB0A01019801EBE071AE
:103D000005984144401A401E0590E00306D45B46E6
:103D10002146179A059800F05DF80544149800783C
:103D200018B15A46179990476D1CE00324D55B469D
:103D30002146179A059800F04DF805441CE00498B8
:103D4000002807DBDDE90301884203DD0098405CC1
:103D5000179901E0179930205A469047049805F1C9
:103D60000105401C04900198401E019004D12E20B2
:103D70005A46179990476D1CBAF10001AAF1010A41
:103D8000DDDC05E017F8010B5A46179990476D1CCA
:103D9000B8F10001A8F10108F4DC5B462146179A4E
:103DA0000598ABE62D0000002B000000200000006D
:103DB0002DE9F041044600251E461746880404D428
:103DC00005E039462020B0476D1C641EF9D5284611
:103DD000BDE8F0812DE9F041044600251E469046DD
:103DE000C80301D5302700E02027880404D505E06A
:103DF00041463846B0476D1C641EF9D52846BDE8DB
:103E0000F0810A68531C0B601070704708B50020E1
:103E10008DF8000003486A460121006803F0A4FC05
:103E200008BD00000800002010B560B102290AD3C7
:103E30004218891E32F8024C89B200F007F8A042FD
:103E400001D1012010BD002010BD000070B5094D4A
:103E5000FF231A4605F5807606E000BF10F8014BF7
:103E600054402A5D5A40335D491E89B2F6D242EA77
:103E7000032070BD2B7E000810B5044640688047C3
:103E800022462068BDE81040014903F05BB90000FC
:103E9000793E0008FDF7B8B800280BD0426A002A26
:103EA00008D0537A082B05D10968926A914201D152
:103EB00000F086B970472DE9FC41050066D06C6AB8
:103EC000002C63D000232384616B4FF03C07B1F1D9
:103ED000FF3F4FF480364FF001024FF6FF700AD0DB
:103EE0001E31B1FBF7F1B14200D301460904090CC0
:103EF000618400D16284A16BB1F1FF3F0CD01E310F
:103F0000B1FBF7F1B14200D301460904090C21834A
:103F100000D12283218BA183E16BB1F1FF3F0CD053
:103F20001E31B1FBF7F1B14200D301460904090C7F
:103F3000618300D16283618BE183228B618B8A4232
:103F400001D301B12383E17A09B1E06A09E094F871
:103F500028107F2901D8FF2003E0C02901D36FF08A
:103F60007F400090206B019028B9A06A009908401A
:103F700040F0807001900A21204600F04DFE01AB18
:103F80006A4604F12801284602F0CAFDBDE8FC811A
:103F900070B5446A05460821204600F03DFE002227
:103FA00004F12801284601F065F8A07AFF2801D223
:103FB000401CA0724FF4FA7140F2E730B0FBF1F010
:103FC000E08270BD70B5294804684CE0606AA0B317
:103FD000417A91B3418C69B1018C491C89B2018449
:103FE000428C914206D1204600F0ECFC204600F0C5
:103FF00037F937E0C18B19B14A1EC283012906D0B7
:10400000818BD1B14A1E8283012917D02AE0656ACB
:104010002046697A012905D00A2903D0052901D053
:1040200004291FD100F072FB688C298C401A0228E9
:1040300018DB00EBD0704008E88313E0656A204687
:10404000697A012903D00A2901D005290AD100F093
:104050000DFD688B298C401A022803DB00EBD07021
:104060004008A8832468002CB0D170BD84000020D3
:104070002DE9F04116460C4607000FD094B10022FE
:104080004FF49A71104602F0E3FDE06068B1032E30
:1040900012D0A07A404D58B1A8680CE06FF00F0024
:1040A000BDE8F0816FF00500FAE74FF0FF30F7E769
:1040B000FCF77AF8A8602060E068002541680120DC
:1040C0002161087021694870216997F82C00887077
:1040D0002069C570206802F09FF92169082E4860A8
:1040E00020690581206945812069C5600AD0042EB8
:1040F00008D0072E06D0032E07D1607A052801D0FC
:10410000042802D121697868C860206905612069A6
:10411000456120698561002097F82C10814205D9FE
:10412000062803D2391891F82D1000E0002100F183
:104130001C022369401C80B299541028ECD3002043
:1041400000F12C012269401C80B255544028F7D35D
:104150005FF0000000F16C012269401C80B25554F0
:104160008028F7D321690D48C1F8EC00A582002012
:10417000226900F1F0015054401C80B24428F7D36A
:1041800001223521204600F05DF93146204600F03D
:1041900069F9002084E700008C00002063825363EB
:1041A00010B5064C2078401E10F0FF00207004D19E
:1041B000E06803F0D3F90020E06010BD8C0000201F
:1041C0007CB5446A06460C21204600F025FD0422F9
:1041D00021463046FFF74CFF050021D10422322151
:1041E000204600F02FF9A06A02F016F90146204699
:1041F00000F040F9204600F06FF9A08AF03081B25B
:10420000E06802F0DFFE0D484323CDE900600D4871
:104210000B4AE168C06803F0F5F9204600F014F895
:10422000A07AFF2801D2401CA07242F603104FF47E
:10423000FA71B0FBF1F0E08228467CBD8C8000086A
:10424000908000088C00002010B5040006D0E068C3
:1042500008B102F057FE0020E060206110BD0000B0
:104260002DE9FC41446A06460020A0620621204652
:1042700000F0D2FC012221463046FFF7F9FE07008C
:1042800030D102223921204600F0DCF8718D204621
:1042900000F011F904223721204600F0D3F8DFF8AE
:1042A00080800025204618F8051000F0DBF86D1C12
:1042B000EDB2042DF6D3204600F00EF9A08AF030BE
:1042C00081B2E06802F07EFE16484323CDE900602B
:1042D0001348154A401EE168C06803F093F9204670
:1042E000FFF7B2FFA07AFF2801D2401CA072C0B233
:1042F000062802D20121814000E03C2101EB41006F
:10430000C0EBC1104FF6FF7101EAC0004FF4FA7123
:1043100000F2F310B0FBF1F0E0823846BDE8FC811A
:104320008D0000208C8000089080000870B50B483C
:10433000002504680EE0606A58B1C18A012903D9DA
:10434000A1F10101C18204E003D1C582204600F041
:10435000B9FC2468002CEED170BD00008400002060
:1043600070B5446A0020164EE0622063F178A6F131
:10437000280509B1E9686163317909B1296901E06A
:10438000616B4908A163717909B1696903E0616BE7
:10439000C1EBC101C908E16361680969A162B17932
:1043A00021B1A86902F038F8E0620120E072F079EA
:1043B000002803D0E86902F02FF8206370BD0000E8
:1043C000D85B002010B5104C2078A8B903F0A0F8F5
:1043D000E060B0B1017A442241F0200101720B4942
:1043E00002F012FF43220949E06802F07DFF00223B
:1043F0000749E06803F0AEF82078401C20700020E8
:1044000010BD4FF0FF3010BD8C0000208C800008E4
:1044100099480008416A002913D04B7A0022042BE6
:104420000CD004DC002B0CD0032B04D106E0052BB0
:1044300004D00A2B02D08A72FFF712BF8A7200F0F2
:10444000C1B9704710B5838A04691C445B1C838220
:1044500084F8F010818A03690B44491C818283F837
:10446000F02010BD828A03691344521C828283F8B3
:10447000F010704710B5828A04690B0E1444521C68
:10448000828284F8F030828A04690B0C1444521C36
:10449000828284F8F030828A04690B0A1444521C28
:1044A000828284F8F030828A03691344521C82822B
:1044B00083F8F01010BD10B5828A04690B0A144409
:1044C000521C828284F8F030828A03691344521CA1
:1044D000828283F8F01010BD002812D0818A03690F
:1044E000FF220B44491C818283F8F020002205E062
:1044F00003690B44491C818283F8F020818A442996
:10450000F6D370472DE9F04F8BB0044600208A4661
:1045100008900A217C48FBF772FEBAF80A002C28A2
:1045200018D3DAF804006060BAF80800DFF8D88120
:10453000F0256FF00509574604E06A1A401A3F68F3
:1045400095B280B237B17989A942F6D90290D7F8ED
:1045500004B0B5E06FF001000BB0BDE8F08F00BF14
:10456000A81C80B205907A89681C4FF0FF36824201
:1045700003D90BEB0500407803E0386808B14068C8
:104580000078342904463AD00BDC032925D003DC1B
:10459000D1B101290DD11CE0062923D0332908D13E
:1045A00029E035292FD0362931D03A2933D03B297B
:1045B00037D000242844801C85B284B300200990A1
:1045C00018F8060060B36BE000206D1E0446ADB223
:1045D000F0E7042853D10626ECE7042404284ED340
:1045E0000726E7E781074AD1082800D30824A0421C
:1045F00045D30826DEE7042841D10326DAE701285F
:104600003DD10026D6E7012839D10126D2E704287A
:1046100035D10226CEE7042831D10426CAE73FE08F
:1046200003E004282BD10526C4E7042C01D2204640
:1046300000E004200190024609A93846059B02F0DB
:104640002DFC01460198814284D1042C13D9A00786
:1046500015D1012008F80600099801F0DDFE2A496D
:10466000241F2839E4B241F826000598001D80B2C5
:10467000761C0590A4E7042C03D0012C05D04846F5
:104680006AE7099801F0C8FE01E09DF8240009904E
:10469000012008F806001C480999283840F826101F
:1046A0007889A8420BD8291A8DB20299081A80B2CB
:1046B000029085420CD258B13F68D7F804B03FB1A0
:1046C0001BF80510FF2903D002988542FFF448AF7C
:1046D00098F8000058B10C4800222838006888F883
:1046E000002001280DD0022804D0032807D0089804
:1046F0000028C5D000202C2508906C201BE7012045
:1047000008906C25EC2016E7D85B00202DE9F843D3
:10471000446A06460421204600F07EFA0322214620
:104720003046FFF7A5FC07002ED102223921204692
:10473000FFF788FE718D2046FFF7BDFE042237216A
:104740002046FFF77FFEDFF874800025204618F82A
:104750000510FFF787FE6D1CEDB2042DF6D3204641
:10476000FFF7BAFEA08AF03081B2E06802F02AFCBE
:1047700012480096401E4323114AE168C06802F0C7
:1047800026FF2046FFF760FDA07AFF2801D2401CDB
:10479000A072C0B20A2803D24FF47A71484301E0F4
:1047A00042F2107080B24FF4FA7100F2F310B0FBD5
:1047B000F1F0E0823846BDE8F88300008D0000206B
:1047C000908000082DE9F843446A074603212046FB
:1047D00000F022FA032221463846FFF749FC060082
:1047E0003CD1022239212046FFF72CFE4FF41071F4
:1047F0002046FFF760FE042232212046FFF722FE0A
:10480000A06A01F009FE01462046FFF733FE0422AC
:1048100037212046FFF716FEDFF87480002500BF21
:1048200018F805102046FFF71DFE6D1CEDB2042D93
:10483000F6D32046FFF750FEA08AF03081B2E06840
:1048400002F0C0FB12480097401E4323114AE16862
:10485000C06802F0BCFE2046FFF7F6FCA07AFF28F5
:1048600001D2401CA072C0B20A2803D24FF47A7160
:10487000484301E042F2107080B24FF4FA7100F246
:10488000F310B0FBF1F0E0823046BDE8F8830000A1
:104890008D000020908000082DE9F04146485168C5
:1048A00016464468656A002D7DD0287A4FF00008CE
:1048B000002877D070892C2874D30878022871D109
:1048C000002094F82C2001E0401CC0B2824209D99B
:1048D000062807D223180F1893F82D303F7FBB42CC
:1048E0005FD1F1E7486801F097FD2968884258D107
:1048F00031462846FFF706FE00BB30494878E8B14C
:10490000A1F128021079052804D006281FD002281A
:1049100034D046E0687A012806D0032813D0042852
:1049200011D005280FD03CE02046FFF719FD94F880
:104930003300000703D52046FFF72AFB31E020466D
:10494000FFF7B9FA2DE02046FFF70AFDF7E7687A8E
:10495000032805D0012803D0042801D0052820D140
:104960000C21606A00F058F9154B20461A46114692
:1049700002F0D6F82046FFF773FC12E0687A0628AA
:104980000FD1A5F816802746646A887848B19068E8
:1049900001F042FD606260680069A062384600F084
:1049A000BFF805B100E001E0C5F804803046BDE87D
:1049B000F04102F0A7BA0000985B0020D85B00200D
:1049C0008C8000087CB5446A0546F4B1606A0190A9
:1049D000284600F06BF906460021204600F01CF93D
:1049E00000206062A062E0622063E063A063606315
:1049F00060842084E083A08356B1072221462846A4
:104A0000FFF736FB060005D024E06FF00F007CBDF9
:104A100000207CBD042236212046FFF713FD0198BB
:104A200001F0FAFC01462046FFF724FD2046FFF77F
:104A300053FDA08AF03081B2E06802F0C3FA094861
:104A40000095432301AAE168C06802F0C0FD20463A
:104A5000FFF7FAFB044B28461A46114602F060F8AD
:104A600030467CBD8C0000208C8000082DE9F84386
:104A7000446A06460521204600F0CEF8032221466E
:104A80003046FFF7F5FA07002FD1022239212046E0
:104A9000FFF7D8FC718D2046FFF70DFD042237216A
:104AA0002046FFF7CFFCDFF874800025204618F879
:104AB0000510FFF7D7FC6D1CEDB2042DF6D3204690
:104AC000FFF70AFDA08AF03081B2E06802F07AFABE
:104AD00012480096401E432304F12402E168C06896
:104AE00002F075FD2046FFF7AFFBA07AFF2801D248
:104AF000401CA072C0B20A2803D24FF4FA614843A6
:104B000001E044F6206080B24FF4FA7100F2F31035
:104B1000B0FBF1F0E0823846BDE8F8838D0000205C
:104B20002DE9FC41446A06460121204600F074F854
:104B3000032221463046FFF79BFA070048D10222A4
:104B400039212046FFF77EFC718D2046FFF7B3FC2C
:104B5000042232212046FFF775FCA06A01F05CFCBC
:104B600001462046FFF786FC042236212046FFF747
:104B700069FC606A01F050FC01462046FFF77AFCB0
:104B8000042237212046FFF75DFCDFF880800025F6
:104B9000204618F80510FFF765FC6D1CEDB2042DDA
:104BA000F6D32046FFF798FCA08AF03081B2E06887
:104BB00002F008FA16484323CDE900601348154A6D
:104BC000401EE168C06802F01DFD2046FFF73CFB77
:104BD000A07AFF2801D2401CA072C0B2062802D2DF
:104BE0000121814000E03C2101EB4100C0EBC110FC
:104BF0004FF6FF7101EAC0004FF4FA7100F2F310B2
:104C0000B0FBF1F0E0823846BDE8FC818D00002069
:104C10008C80000890800008427A8A4203D041725A
:104C200000218172C182704770B505006FF00F00DE
:104C300017D095F83310C90713D0688D6C6A4FF000
:104C4000FF36B0F5107F0BD364B1207A08B1FFF7BF
:104C5000A7FA40212046FBF7D2FAFFF7B3FB40B199
:104C6000304670BD402001F02BFE0400F8D06C628D
:104C7000EFE7012020722846FFF7F2FA0028F0D073
:104C8000284600F001F8EBE710B500280DD0446A83
:104C9000002C0AD000212046FFF7BEFF207A002812
:104CA00003D0FFF77DFA0020207210BD30B1406ABA
:104CB00020B1407A0A2803D0052801D0002070478F
:104CC0000120704710B5426A0446517A0C290FD072
:104CD00006290DD001290FD0082919D0032923D185
:104CE000907A022812D22046BDE81040FFF76ABD34
:104CF000BDE81040FFF7B4BA907A0528204603D8E3
:104D0000BDE81040FFF70CBFFFF75CFE2046EFE761
:104D1000907A0128204603D8BDE81040FFF738B943
:104D2000BDE81040FFF7C7B810BD826812680A607E
:104D300080680160704781680868002801D00268B7
:104D40000A60704770B50A4D0646002404EB440023
:104D500005EBC000017D29B18068B04202D1204638
:104D600000F076F8641CE4B20A2CEFD370BD0000AA
:104D7000EC8500202DE9FC5F0A27054600208B46C4
:104D8000DFF8C8903E4639463C4601908646009082
:104D900000EB400A09EBCA030A291A7D0AD0B2B116
:104DA00065B1D5F800C0D3F80480C44506D140B23F
:104DB000BDE8FC9F002AF3D141B208E0012A14D0DB
:104DC000022A04D35A8A724501D346B29646401C41
:104DD000C0B20A28DCD35FEA8B724FF0FF30E7D411
:104DE0000A2913D015DACCB221E059F83A20002A6A
:104DF0005A8A05D0019B9A42E9D344B20192E6E770
:104E0000009B9A42E3D347B20092E0E75FEACB719E
:104E1000CED00A2E01DAF4B206E00A2F01DAFCB293
:104E200002E00A2CC4DAE4B2204600F011F82DB1F9
:104E300004EB440209EBC2002968416004EB440220
:104E400009EBC2000021418260B2B1E7EC8500208D
:104E500070B5074C00EB4005002654F8350018B13A
:104E600002F050F844F8356004EBC500067570BDDB
:104E7000EC8500202DE9FC470D00074651D07C68E9
:104E80004FF480782088404548D12079062845D1C4
:104E90006079042842D1608808283FD1D4F80E00F8
:104EA0000190A169686820B1814202D10126334690
:104EB00001E00026022304F10802914601A92846D8
:104EC00000F0DAF9E088404503D0B0F5007F25D145
:104ED00020E01EB3022001F0A1FAE080D4F80E0019
:104EE000A0616868C4F80E00A068C4F81200A08928
:104EF000E082D5F82D00A060B5F83100A08140F621
:104F00000600009004F112034A463946284600F094
:104F100043FA03E001A92846FEF7BEFF384601F038
:104F2000F1FFBDE8FC870000FEB504460E461546BD
:104F30002146106800F0D2FC08B1334B3CE02868F1
:104F4000C0F303110E2922D0A168636800EA0102B0
:104F50000B409A4208D080B2A0F57E41A93903D017
:104F6000E06898B304F10C05284B29491A7802EB44
:104F7000420001EBC000077D022F2BD32F68406851
:104F8000874227D13146204600F044F8FEBD01207B
:104F90008DF8040000208DF805005E208DF80600D5
:104FA000687801AB00F07F008DF80700A8788DF8D5
:104FB0000800E8788DF809004FF40060009004F1D3
:104FC0002D023146204600F0E7F9FEBDFFE76FF005
:104FD0000300FAE75FF0000000EB400201EBC202C1
:104FE000177D022F06D32F685268974202D1C2B2B2
:104FF0001A70C7E7401C40B20A28EDDB324629464A
:10500000204600F037F8E0E794800008B600002062
:10501000EC8500202DE9F84306468846144802EB4B
:10502000420100EBC10404F10C05207D022813D1DC
:10503000608A0327B0F58E7F04D9211D304600F029
:10504000D5F807E0B0F5877F06D32A46211D304604
:1050500000F0D2F800B927754FF4006000902B469D
:1050600006F12D024146304600F096F9BDE8F8837E
:10507000EC8500202DE9FC5F82462D3001908846AA
:10508000086814464FF0FF36514600F027FCD0B9AF
:10509000D8F80000C0F303110E2914D0B8F1000FA6
:1050A00011D080B1524601214046FFF763FE070050
:1050B0000BD4DFF8A8B007EB47090BEBC905287D37
:1050C00028B144B10EE06FF00F00BDE8FC9F012055
:1050D0002875C5F808A04146504600F087F80646F6
:1050E000002CF2D0287DD84602280DD31C4805F1AB
:1050F0000C03214607704FF4006000905046019A5F
:1051000000F04AF9064627E0012825D12046017B18
:1051100001290ED001890022022001F099FD05002D
:1051200018D0214601F06DFE58B1284601F0EAFE84
:1051300010E000680028EAD12546204601F06CFF07
:1051400045B158F8390008B101F0DCFE48F8395093
:10515000002601E04FF0FF363046B6E7EC85002030
:10516000B60000202DE9FF4F81B09346DDE90F988E
:1051700000261F4632461C210220DDF838A001F02F
:1051800067FD05002FD06C68119801F047F9E080A9
:105190003868A060B888A081D9F80010C4F812104F
:1051A000B9F80400E082DAF80000C4F80E00D8F87C
:1051B0000000A0614FF480702080082060800620ED
:1051C00020710420607140F606000090DDE90102C4
:1051D0005B46294600F0E0F8284601F093FE304691
:1051E00005B0BDE8F08F4FF0FF30F9E7014A00F05D
:1051F00003B80000948000087FB5064D031D01240C
:10520000CDE90035CDE9021429331946FFF7AAFF8D
:1052100004B070BD9A80000870B5164D002400BF20
:1052200004EB440005EBC002107DF0B1518A491C2B
:1052300089B25182B1F5967F0AD2012806D003289F
:105240000AD004280AD001280BD00EE0052908D383
:105250002046FFF7FDFD08E0042000E00220107565
:1052600003E0111D9068FFF7C1FF641CE4B20A2C33
:10527000D6D370BDEC850020F8B51F4616460D004C
:10528000044634D0286888B3214600F027FB68BB69
:105290002878C0F303100E2829D022463946284624
:1052A000FFF768FD002820DB00EB400111480223D6
:1052B00000EBC102137594603368D360B388138226
:1052C0000023538250F8315075B140F831304FF41B
:1052D00000600090334604F12D022946204600F07C
:1052E0005BF8284601F00EFE0020F8BDFFE76FF0E6
:1052F0000F00FAE7EC85002070B5044640890D46A2
:105300000E283CD9606801788689CA0714D0012923
:1053100005D006221F49FAF797FF48B10CE0417803
:1053200051B980785E2807D1607B40F0100002E020
:10533000607B40F0080060736FF00D01082E03D011
:10534000B6F5C16F1BD10FE095F83300000716D5F5
:1053500060890E2813DB204601F0FCFD78B9294650
:10536000204600F081FB12E095F83300000706D5D7
:1053700060890E2803DB204601F0ECFD18B12046C1
:1053800001F0C0FD03E029462046FFF773FD002031
:1053900070BD0000948000082DE9F04180461E4653
:1053A00017460D46069801F039F804460E212846A6
:1053B00001F0D0FD18B16FF00100BDE8F081686820
:1053C000848131680160B18881803968C0F8061035
:1053D000B988418140462946D8F81820BDE8F041F7
:1053E0001047000010B5732180F83410742180F844
:1053F0003510044941610449816100F0E3FE002059
:1054000010BD0000294F00087163000870B5054603
:1054100000F050FF040009D02A692946904700286F
:1054200004D02046BDE8704001F06CBD70BD0000A6
:1054300070B5044690F833000E4D40070CD50EA011
:1054400000F0A7FE0CA0FEF74DF8012028702046C2
:10545000BDE8704001F0EEBB05202870204601F049
:1054600089FB0FA000F095FEBDE870400CA0FEF790
:1054700039B8000020000020546865206E657477FC
:105480006F726B206361626C65206973206E6F7749
:1054900020636F6E6E6563746564200A000000000F
:1054A000546865206E6574776F726B206361626CFF
:1054B00065206973206E6F7420636F6E6E65637410
:1054C0006564200A0000000038B504460020009002
:1054D000FCF788FB104D2968401AC82814D3FCF744
:1054E00081FB28606A4601210C48FCF75FF80098B0
:1054F00000F00401009194F83300400705D400291E
:1055000002D0204601F075FB38BD0029FCD12046B1
:1055100001F062FB38BD00001C0000202852002072
:105520002DE9FC41002506460195009590F83300D1
:10553000400742D5254C606868B34FF48052002183
:105540002046FCF77FF9FCF74DFB4FF47A7701908A
:105550006A4601211D48FCF729F8FCF743FB019935
:10556000401AB84217D800988006F1D56A46102133
:105570001648FCF71BF80098410703D54FF400616B
:10558000E16000E0E560800701D5A5600DE04FF423
:105590008040A06009E0E068A168C00840EA5100CE
:1055A00082B200210948FCF74DF900210748FBF7BA
:1055B00039FD0648FCF73DF802E00448FCF77BF8AB
:1055C0003046FFF735FFBDE8FC810000285200207F
:1055D00004490A68506009680A68D2431206FBD47D
:1055E000704700003C01002010B109B100787047FD
:1055F0000020704710B513460C4648B1042C07D95B
:10560000811C221F1846FAF7E1FD241FA0B210BD2D
:10561000002010BD18B1012901D940787047002041
:105620007047000008B50022009208B1052901D09A
:10563000002008BD6A46FFF7DDFF03499DF8000022
:105640000870012008BD00003C00002000B5A1B09A
:105650006A46FFF7CFFF009821B000BD00B5A1B0AA
:105660006A46FFF7C7FFBDF80000054ABDF8021003
:1056700040BA49BA9081D18121B0012000BD00001B
:105680003C00002000B5A1B06A46FFF7B3FF034914
:105690009DF80000487021B0012000BD3C000020B2
:1056A00000B5A1B06A46FFF7A5FFBDF80000054AA6
:1056B000BDF8021040BA49BA9080D18021B00120D3
:1056C00000BD00003C00002000B5A1B06A46FFF715
:1056D00091FFBDF80000074ABDF8021040BA1082E1
:1056E00049BA054B5182184401AA02F03DF821B095
:1056F000012000BD3C00002000D0000800B5A1B092
:105700006A46FFF777FFBDF80210BDF800004ABAFD
:10571000054940BA08814A810449084401A9FAF7B9
:1057200055FD21B0012000BD3C0000207056002036
:1057300070B50023302612E0CC5C06EB141504F0A3
:105740000F043034392D00D9ED1D392C00D9E41D5A
:1057500000F8135000EB43055B1C6C709BB2934246
:10576000EAD3002100F8121070BD0A46032100F0B0
:105770007BB800002DE9FE4F8A463A490446D1F82D
:10578000088098F800000007850E142D65DB6089FD
:10579000042862D36068007800285ED008285CD1B5
:1057A000486901F11407C0F303120E2A55D0894647
:1057B000096800F093F800284FD1208908284CD3BD
:1057C00005F10E010E46204601F0C4FB28B32089E6
:1057D0000022284481B2022001F03AFA06003CD0AF
:1057E000718905F1080081420ED32A46414670684E
:1057F000FAF7ECFC6942304601F0ACFB20B92146D7
:10580000304601F0FEFA18B1304601F07BFB24E08F
:10581000204601F077FB344604E07142204601F057
:1058200099FBD0B929462046666801F093FBA0B9E0
:1058300060683968FF22C160D9F810100161002149
:10584000317071800272418101228DE806040A469E
:10585000FF233946204600F0DBF92046BDE8FE4F25
:1058600001F050BB985B00202DE9FF479146884628
:10587000064600222421012001F0EAF9050027D084
:105880006C6877681C2284F8008084F801904FF0DF
:105890000008A4F80480A4F80680686871680830DD
:1058A000FAF794FCF868039003A800F0DDFA60B101
:1058B000A4F802800122CDF80080CDE90120FF2369
:1058C00003AA0021284600F0A3F9284601F01AFB9C
:1058D000BDE8FF870A460B21FFF7C6BF421C12D066
:1058E00088B191F8332092070BD54B68834208D0DA
:1058F000896800EA01020B409A4202D10143491C27
:1059000001D0002070470120704700002DE9F74FBB
:1059100086B00546079800241427408DA61F14382A
:10592000C11700EB5170C0F3CF0B68680590017888
:1059300001F00F01052907D1C08800F06FFDC0F309
:105940000C010291800403D5304609B0BDE8F08F08
:10595000288914381FFA80F875E000BFB8EBCB0F28
:1059600001D34FEACB0080B2039000221421022021
:1059700001F06EF95FEA000A6CD01422DAF8040034
:105980000599FAF723FCDAF804000490039E2BE053
:105990006889C01B84B2A64200D2344614B30220E8
:1059A00001F07AF85FEA000951D068684B46384444
:1059B000CDE9000402222146042001F0D3F9009031
:1059C000F0B3284601F028FB2649C9E904155046E2
:1059D000009901F0F0F9301B0604360C06D00027C0
:1059E0002D68D5E72D680027002ED1D1381987B250
:1059F0000798408D143840450298C0F30C0001DA36
:105A000040F4005000F00AFD0499C8800398143057
:105A100080B200F003FD0499488004980021418180
:105A200007985146089A43699847504601F06AFA28
:105A30000399A8EB01001FFA80F80298584400E08F
:105A40000BE080B202905FEA080087D17DE7504604
:105A500001F058FA4FF0FF3077E7484600F074FA4B
:105A6000F5E700007D6100082DE9F05F4568064616
:105A70000F4628780421B1EB101F03D0304601F007
:105A800041FA95E000F00F004FF6FF7101EA80083F
:105A9000688800F0C3FC04463089A04203D921463F
:105AA000304601F08FFA71894145E7D33089A04231
:105AB000E4D3B8F1140FE1D32969DFF84CA1C1F3A5
:105AC00003100E28CAF81410EA68CAF8102014D07F
:105AD000DFF838B14FF001093C4600BF94F83300BD
