:020000040801F1
:10000000809A002065010108973E0108F137010838
:10001000953E0108A3070108B5440108000000004F
:10002000000000000000000000000000713F010817
:10003000970A010800000000B93E0108733F01085B
:100040007F0101087F0101087F0101087F0101088C
:100050007F0101087F010108190C01087F010108D7
:100060007F0101087F0101087F0101087F0101086C
:10007000610A01087F0101087F0101087F01010871
:100080007F0101087F0101087F0101087F0101084C
:10009000A50701087F0101087F0101087F01010810
:1000A0007F0101087F0101087F0101087F0101082C
:1000B000814001087F0101087F0101087F010108DB
:1000C0007F0101087F0101087F0101087F0101080C
:1000D0007F0101087F0101089D440108A94401082E
:1000E0007F0101087F0101087F0101080000000075
:1000F0000000000000000000000000000000000000
:1001000000000000000000007F0101087F010108DD
:100110007F0101087F0101087F0101087F010108BB
:100120007F0101087F0101087F0101087F010108AB
:100130007F010108E90A01087F0101087F01010828
:100140007F0101087F0101087F0101087F0101088B
:10015000DFF80CD000F06AFA00480047297D01085A
:10016000809A00200648804706480047FEE7FEE7E1
:10017000FEE7FEE7FEE7FEE7FEE7FEE7FEE7FEE757
:100180002D40010851010108202A04DB203A21FA00
:1001900002F00021704721FA02F3D040C2F12002A0
:1001A00091400843194670470649074A086850437A
:1001B00043F2390210440860400870470149086062
:1001C00070470000000200206D4EC64140EA010366
:1001D0009B0703D009E008C9121F08C0042AFAD2FD
:1001E00003E011F8013B00F8013B521EF9D27047C1
:1001F000D2B201E000F8012B491EFBD27047002269
:10020000F6E710B513460A4604461946FFF7F0FF15
:10021000204610BD30B504460020034600E05B1CBC
:10022000934203D2E05CCD5C401BF8D030BD30B5CA
:100230000B46014600202022012409E021FA02F5A4
:100240009D4205D303FA02F5491B04FA02F528443E
:10025000151EA2F10102F1DC30BD2DE9F05F05466B
:10026000002092469B4688460646814640241BE075
:100270002846414647462246FFF786FF53465A46E0
:10028000C01A914110D311461846224600F0E0F9F9
:100290002D1A67EB01084F4622460120002100F08D
:1002A000D7F917EB00094E41201EA4F10104DFDC51
:1002B000484631462A464346BDE8F09F2DE9FE4FA9
:1002C000804681EA0300C00F0C46009021F00041F7
:1002D00023F00045B8EB0200A94105D24046214673
:1002E00090461C460B46024623F00040104347D080
:1002F000270DC7F30A00C3F30A510290401A019078
:1003000040286BDAC3F3130040F4801B0098924638
:1003100020B10023D2EB030A63EB0B0B0198594683
:10032000C0F14002504600F093F906460D46504693
:100330005946019A00F09BF910EB08006141002436
:1003400087EA115284EAE7731A4340D0009A62B3F5
:10035000019A012A4FEA075215DC001B61EB0201EA
:100360004FF0004202EA0752CDE90042001C41F57D
:10037000801132462B4600F09BF903B0BDE8F08FA8
:1003800040462146F9E7001B61EB0201001C41F5E4
:10039000801300185B412018A2F5001747EB0301FA
:1003A00040EAD570B6196D4111E06D084FEA360686
:1003B00045EAC0754FEA0752001B61EB0201001CC1
:1003C00041F5801149084FEA300000195141324689
:1003D0002B4603B0BDE8F04F00F05BB90098012256
:1003E00040000023D0EB020263EBE073009821464B
:1003F0004FEAE074B8EB000061EB0401E9E783F039
:1004000000435BE781F0004158E72DE9FE4F81EAA8
:10041000030404F0004421F0004100944FF0000B6D
:1004200023F0004350EA01045ED052EA03045BD09B
:10043000C3F30A54C1F30A552C44A4F2F3340194D3
:10044000A0FB0254C1F3130141F48011C3F3130361
:1004500043F4801301FB024400FB034E840A970A15
:1004600044EA815447EA8357A4FB076802958D0A42
:1004700005FB07854FEA932C04FB0C542705029DCE
:100480004FEA065847EA1637B5EB08056EEB070C3E
:10049000870E920E47EA811742EA8312A7FB0201F8
:1004A000B6EB0B0164EB00042B0D43EA0C335E1832
:1004B00044EB1C50DA465146E7FB0201C5F3130436
:1004C0004FEA0B3343EA14534FEA0432019C43EAE8
:1004D0000603A4F10C040294009CCDE900B400F0E2
:1004E000E7F803B0BDE8F08F00200146F9E72DE9F9
:1004F000F04D81EA030404F0004B21F0004514465E
:100500004FF0000A23F0004150EA050220D054EADF
:1005100001021DD0C5F30A570246C5F31303C1F308
:100520001300C1F30A5640F4801543F48013A7EB7F
:100530000608101BD64608F2FD3873EB050002D3FF
:1005400008F1010801E092185B41B8F1000F03DAED
:1005500000200146BDE8F08D00204FF480110646D2
:1005600084460EE0171B73EB050705D3121B63EBE4
:10057000050306434CEA010C49084FEA3000921883
:100580005B4150EA0107EDD152EA030012D082EA42
:10059000040083EA0501084305D0101BAB4106D2D5
:1005A0000122002306E000224FF0004302E06FF03A
:1005B000010253101AEB06004CEB085110EB0A0035
:1005C00041EB0B01BDE8F04D00F063B8C1F30A52F6
:1005D000C1F3130140F2FF3341F480119A4202DA71
:1005E00000200146704740F233439A42A2F2334260
:1005F00002DC5242FFF7C8BD00F02AB830B5041E35
:1006000071F1000404DB4FF00044404264EB01014F
:10061000141E73F1000405DB1C464FF000435242E8
:1006200063EB0403994208BF904230BD064C074D6E
:1006300006E0E06840F0010394E8070098471034B2
:10064000AC42F6D3FFF788FD44C0010864C001083E
:10065000202A04DB203A00FA02F100207047914082
:10066000C2F1200320FA03F3194390407047202A77
:1006700006DBCB17203A41FA02F043EAE07306E0CA
:1006800041FA02F3D040C2F12002914008431946DA
:10069000704710B5141E73F1000408DA401C41F1D4
:1006A000000192185B411A4301D120F0010010BDF6
:1006B0002DE9F04D92469B4611B1B1FA81F202E06C
:1006C000B0FA80F220329046FFF7C2FF04460F4690
:1006D00040EA0A0041EA0B0153465A46084313D048
:1006E000114653EA010019D0C8F140025046FFF705
:1006F0004BFD05460E46504659464246FFF7A8FFB9
:10070000084305D0012004E020463946BDE8F08DBD
:100710000020054346EAE0762C4337430A986305F8
:10072000E40AA0EB08000022FD0A44EA47540A301C
:1007300002D500200146E9E7010510196941DDE90C
:10074000084500196941BDE8F04DA2E770B58C1865
:1007500010F8015B15F0070301D110F8013B2A11D5
:1007600006D110F8012B03E010F8016B01F8016BC2
:100770005B1EF9D12B0705D40023521E0DD401F8BE
:10078000013BFAE710F8013BCB1A921C03E013F887
:10079000015B01F8015B521EF9D5A142D8D30020BC
:1007A00070BDFEE7014800F0B3BB00005881002097
:1007B00010B5002958D0826B4FF4D873046803EB4E
:1007C0000113E45814F0040494600468E4584DD014
:1007D000E40854600468E35803F00203D3604FF464
:1007E000DA73046803EB0113E45804F00F04146196
:1007F00011620468E358C3F30723D3614FF4DC7339
:10080000046803EB0113E45814750468E458240ADF
:1008100054750468E458240C94750468E3581B0E5E
:10082000D3754FF4DE73046803EB0113E4581476B8
:100830000468E458240A54760468E458240C947636
:100840000468E3581B0ED3760368202289B11A612D
:100850000268536923F05003536190F83C20222A28
:100860000DD0322A0BD00FE0426BA5E7640D146067
:10087000B0E7DA600268536923F00A03ECE7026824
:10088000536923F40F43536112220123002990F886
:100890003C1006D0522915D0622916D0722906D1F3
:1008A00015E042290ED0622908D0722908D080F8BC
:1008B0003C3000BF00F074FD002010BD322107E085
:1008C000522105E080F83C20F4E7222100E042219B
:1008D00080F83C10EEE7000070B5054601F0AEFE72
:1008E000074C2168401AB0F5FA7F07D301F0A6FE45
:1008F00020602846BDE8704000F004B870BD0000DC
:10090000C000002070B5324D044688B0287800261B
:10091000012806D0022817D0052800D12E7008B073
:1009200070BD687838B9012068706660A66020469E
:10093000E66005F07BFB0220287026A006F032FF5F
:1009400024A003F0FDFDEAE7204605F0B1FB80B1ED
:1009500003202870201D06F03DFD024627A16846B1
:1009600003F0FEFD694626A006F01CFF694624A0A0
:100970002AE0606A807A0428D1D9042028702046B1
:1009800005F084FB6E70294805906FF07F4006905B
:100990002748079007AB06AA05A9204607F0B6FD31
:1009A000201D06F017FD024614A1684603F0D8FD8D
:1009B00020A006F0F7FE1FA003F0C2FD694622A0AA
:1009C00006F0F0FE694620A003F0BAFDA7E700009C
:1009D000D4000020202053746174653A204C6F6F5E
:1009E0006B696E6720666F722044484350207365C0
:1009F00072766572202E2E2E0A00000025730000EC
:100A00004950206164647265737320617373696710
:100A10006E656420627920612044484350207365EC
:100A2000727665723A2025730A000000C0A801FCA6
:100A3000C0A80101444843502054696D656F757426
:100A4000202121200A000000537461746963204949
:100A50005020616464726573733A2025730A000044
:100A6000014800F037BE0000F482002030B590F855
:100A700040500124AC40C56B6C60046863604368FF
:100A8000102B036803D099600068C26030BD9A6083
:100A90000068C16030BD7047064908B509684FF469
:100AA000FA52B1FBF2F14143009100BF491E00919F
:100AB000FBD208BDB800002038B50446006800F538
:100AC0008050816941F480118161206800F5805077
:100AD000806900900120FFF7DFFF2068009900F592
:100AE0008050816138BD0000014801F0EBB8000082
:100AF000108100202DE9F041044621B14FF400603F
:100B0000E060C000A060E0690025002861D02846B0
:100B10002368402619683A4A1140D4E902273A432B
:100B2000024342F4007008431860206807680120FF
:100B300000F06EFF20680760206846602068466805
:100B4000012000F065FF206846602068856020680D
:100B5000C560216888694FF64172104040F08000FE
:100B6000886120688669012000F052FF2068866154
:100B70002068C5612068C569012000F049FF206830
:100B8000C561226802F5805290691E4908401E49DD
:100B900001439161206800F580508569012000F0D3
:100BA00037FF206800F5805085612068174900F5FF
:100BB00080500160206800F580500568012000F039
:100BC00027FF206800F580500560A069012803D048
:100BD00009E04FF480609BE7206800F58050C16910
:100BE0000B4A1143C16160690A4982880A6402782C
:100BF000D0F8010042EA00204864BDE8F08100001E
:100C00000F8120FF233FDEF8040020020020C102F4
:100C10004000010000800240012001F01BBC0000E8
:100C200006490020C8610648016941F004010161DC
:100C3000016941F0400101617047000088380020DF
:100C400000200240064A0021D16106490A6942F0AB
:100C500002020A614861086940F04000086170477B
:100C60008838002000200240044B0022DA61044A48
:100C7000136943F001031361018070478838002035
:100C80000020024014480022C168CB06134904D555
:100C9000CA6942F00202CA611022C3685B0705D527
:100CA000CB6943F00103CB6142F00402C369DB0767
:100CB00007D0CB6943F00403CB61C16921F0010186
:100CC000C161A2F58071013901D0C2607047C1696C
:100CD00021F00101C16170470020024088380020E6
:100CE00070B5054601F0AAFC0646114C09E0681CE7
:100CF00007D025B101F0A2FC801BA84201D9032036
:100D000070BDE068C007F2D1E068800601D5202000
:100D1000E060E068C00605D4E069C00702D1E06881
:100D2000400703D5FFF7AEFF012070BD002070BD66
:100D3000002002402DE9F74F4FF0000B82B05C46D7
:100D4000D846CDF800B051E080284FD20D2803D00E
:100D5000BBF10F0F08D00EE008F110004FF0000BB0
:100D60001FFA80F8009C3AE008F11001009C4FF057
:100D7000000B1FFA81F8202802D9203880B200E049
:100D80000020DFF878A000264FF08009019001983C
:100D9000002506EB001700BF1AF8071029FA05F026
:100DA000014206D008EB060081B2601980B2029AB7
:100DB00009E0DDE90201884207D008EB060081B2B4
:100DC000601980B2039A00F01BF86D1CEDB2082D7B
:100DD000E2D3761CF6B2102ED9D30834A4B204980C
:100DE000401C04900BF1010000F0FF0B0498007808
:100DF0000028A9D105B0BDE8F08F0000D0B90108E6
:100E000010B514464A1C93B2421C92B202F056FE30
:100E10002046BDE8104002F0EDBC0000F0B50C7DAE
:100E2000012303FA04F20468D4F800524E6A25F450
:100E30007C5503EB06231D43C4F800520368D3F826
:100E40001C429443C3F81C424FF41073CD691C1D1F
:100E5000BDB90568D5F80C629643C5F80C628E8959
:100E60004D684F6966F31F45066803EBC707F551E8
:100E70000E890D684F6966F31F45066804EBC707C6
:100E8000F551CD69012D17D10568D5F80C621643CF
:100E9000C5F80C620E884D684F6966F31F450668F9
:100EA00003EBC703F5500D89CB684E6965F31F430B
:100EB000056804EBC6042B518B69002B0368D3F83B
:100EC000044211D054EA0204C3F804420B69002B17
:100ED0000368D3F8144209D054EA0204C3F8144258
:100EE000096A012904D009E09443EDE79443F5E74A
:100EF0000168D1F81C321343C1F81C320068D0F8E5
:100F0000001221F00101C0F800120020F0BD70476E
:100F10002DE9F041044600680026C168C1F30013C2
:100F20004169C1F3C002102113B10AB14E01C16081
:100F3000206802694369C2F30012C3F380131AB137
:100F400013B146F480660161216848694FF00105DC
:100F5000C043C0074ED18A687648904323D0002012
:100F60008B68754A9A4320D000228F68734BBB432D
:100F70001DD00023104318433CD088688A68C0F312
:100F800040008B68C2F3402203F001031043184372
:100F900029D04A69204622F001024A6194F83C10A7
:100FA000122906D00AE00120DAE70122DDE7012359
:100FB000E0E701684A6922F40F424A6190F83C1068
:100FC000422908D0522908D0722908D080F83C5014
:100FD00000F0E6FA09E0222102E0322100E062217D
:100FE00080F83C10F4E746F4006620688168544AB3
:100FF000114381602168C868496910F0030FC1F38B
:10100000400104D019B100212046FFF7D1FB21682F
:101010000869496910F0030FC1F3001104D019B138
:1010200001212046FFF7C4FB206C30432064206878
:101030008169426911F0010F4369C2F30022C3F3D1
:10104000C03305D022B11BB1216C41F001012164F4
:101050008169C1F340034169C1F340224169C1F391
:10106000C0312BB122B119B1216C41F002012164D0
:101070008169C1F3800341694269C1F38021C2F3F0
:10108000C0322BB121B11AB1216C41F004012164AD
:10109000816911F0700F08D000224169C1F3C023AB
:1010A0004169C1F3C03112B121E00122F5E7F3B18A
:1010B000E9B1816901F0700140292FD006DC1029C7
:1010C00009D020290BD030290DD123E0502929D077
:1010D000602908D12AE0216C41F0080102E0216C6E
:1010E00041F010012164816921F070018161206C5F
:1010F00000280DD021680420486084F83C50206806
:10110000416948F65B72914341612046FFF7FFFE5B
:10111000BDE8F081216C41F02001E3E7216C41F052
:101120004001DFE7216C41F08001DBE7216C41F4F5
:101130008071D7E7010000040001000800000110E1
:10114000090501002DE9F04104004FF0000504D02D
:1011500094F83C00002618B107E00120BDE8F081BA
:1011600084F83D60204600F083F8022084F83C00BB
:101170002068016821F0020101602068016841F0E7
:101180000101016001F05AFA07464FF0030804E03C
:1011900001F054FAC01B0A2853D820684068C007E1
:1011A000F6D021684868C00758D0A069012801D14D
:1011B00045F08005E06901282FD025F04000226A23
:1011C000012A2DD020F02000626A012A2BD020F0C5
:1011D0001000A26A012A29D020F00800E26A012A40
:1011E00027D020F004000A6822F0FC0202430A60C3
:1011F000D4E902010843D4E90412114308436168A9
:10120000491E08432168C8612068016821F0010176
:10121000016001F013FA054618E045F04000CEE702
:1012200040F02000D0E740F01000D2E740F0080086
:10123000D4E740F00400D6E701F000FA401B0A288A
:1012400004D904F83C8F0320667087E72068406863
:10125000C007F1D120684068C00703D0042084F89B
:101260003C007AE72664012084F83C00002075E702
:1012700010B50068194986B088422CD11848C16958
:1012800041F00071C161C069164C00F0007004901B
:10129000012000900020019002906946204601F054
:1012A000E5F8022103200091019103906946204650
:1012B00001F0DCF80C48416821F4C041416041680C
:1012C00041F4C041416000221146142001F038FA77
:1012D000142001F029FA06B010BD0000006400409F
:1012E00000100240001401400000014030B511B16F
:1012F000012925D010E090F83C20222A28D090F82F
:101300003C20422A24D000BF90F83C20622A1FD003
:1013100090F83C20722A1BD090F83D20012A17D06B
:10132000012280F83D20622290F83C40722389B16E
:10133000122C19D0222C18D0422C19D0322214E0B1
:1013400090F83C20322A03D090F83C20522ADBD17E
:10135000022030BD122C05D0322C06D0522C07D0E2
:10136000222202E0422200E0522280F83C2001E0EA
:1013700080F83C300022026403685C6948F601751D
:101380002C435C6180F83D2000680029416904D04D
:1013900041F050014161002030BD41F00A01F9E700
:1013A00010B50A4A0168914204D1406B008880B2AE
:1013B00007F0E4FB05481430016841F002010160C8
:1013C000BDE8104000210248FFF790BF00640040D4
:1013D000588100202DE9F05F0E46016804468868B8
:1013E000400105D48868000102D48868C0006FD528
:1013F00094F83D0001280CD0012784F83D7094F842
:101400003C00222808D0322808D062280ED01220B2
:1014100005E00220BDE8F09F422000E0522084F861
:101420003C008868400103D5002507E07220F6E7FC
:101430008868000101D5012500E002254FF4C07045
:1014400000EB05100A5802F001020A50216B8A686D
:10145000EAB3D4F800C05CF800301343CA684968A6
:1014600042EAC1010B434CF80030216B0A7C02F0C8
:101470000F020A614FF4C271226801EB0511535843
:1014800023F00F03535022685358D4F830C0DCF8CF
:1014900010C043EA0C035350216B4FF4C47303EBA9
:1014A00005130A7DD1F8151042EA01222168CA50BD
:1014B000216B4FF4C67303EB05130A7ED1F81910A4
:1014C00042EA01222168CA5021680A5801E00DE071
:1014D0005AE042F001020A5001F0B0F881464FF0A4
:1014E0000008DFF8B0A0DFF8B0B026E0226813589B
:1014F000D1F80CC0098843EA0C0343EA415111506A
:10150000B3E7701C19D02EB101F098F8A0EB0900D8
:10151000B04212D9032084F83C004DB1012D09D00E
:101520004FF400002168886084F83D80032071E753
:101530008020F7E74FF40040F4E7ADB12068012DBB
:10154000816816D0154888430028DAD194F83C0009
:10155000422811D0522811D0722813D084F83C7040
:1015600084F83D80002055E7206881682AEA010060
:10157000EAE72BEA0100E7E7222000E0322084F8C6
:101580003C00EDE76220FAE7042084F83C000120EB
:1015900040E7000001000004000100080000011005
:1015A000704700002DE9F05F90F821100024022917
:1015B00003D004218163012485E001680A6822F0D8
:1015C0000E020A6001680A6822F001020A603F4EBA
:1015D0003E4FB215DFF8F4C0DFF8F090DFF8ECA072
:1015E000DFF8E8B0DFF8E4E00168783F13011502A6
:1015F000ACF1640CA9F15009AAF13C0AABF1280B3B
:10160000AEF1140E4FF48018B14227D9B9420ED072
:10161000614512D049451DD0514518D0594518D0C3
:10162000714501D1424615E0294EB14201D1012256
:1016300010E0274E1436B14201D110220AE0244EA8
:101640002836B14206D0224A3C32914201D11A4694
:1016500000E02A461E49091F0A602BE0B94213D058
:10166000614517D0494522D051451DD059451DD05F
:10167000714501D142461AE0B14202D14FF0807269
:1016800015E0134EB14201D1012210E0104E143684
:10169000B14201D110220AE00D4E2836B14206D0E7
:1016A0000B4A3C32914201D11A4600E02A460749D2
:1016B00080394A60012180F82110002180F8201033
:1016C000416B01B188472046BDE8F09F8000024091
:1016D000080402402DE9F05FC16B0A6801680B68DD
:1016E000046C4FF0040808FA04F8844D844E854FCA
:1016F000DFF814C2DFF81492DFF814A2DFF814B296
:10170000DFF814E218EA020F65D05FEA437862D589
:101710000A68920603D40A6822F004020A60DFF81D
:10172000F0814FF48062016808F11408130114027B
:10173000414524D9A9420DD0B1420FD0B9421AD0A7
:10174000614515D0494515D0514501D1120312E02C
:10175000594501D104220EE0714501D140220AE031
:101760006D4D1435A94206D06B4A2832914201D101
:101770001A4600E022466749091F0A6029E0A9428B
:1017800013D0B14215D0B94220D061451BD0494594
:101790001BD0514502D14FF4800217E0414502D1E0
:1017A0004FF0806212E0594501D104220EE07145EC
:1017B00001D140220AE0584D1435A94206D0564ABC
:1017C0002832914201D11A4600E022464B4908399D
:1017D0004A60C16A71E04FF0020808FA04F818EA9A
:1017E000020F70D05FEA83786DD50A68920606D43E
:1017F0000A6822F00A020A60012180F82110DFF84D
:1018000010814FF40072016808F1140813011402EA
:10181000414524D9A9420DD0B1420FD0B9421AD0C6
:10182000614515D0494515D0514501D1120312E04B
:10183000594501D102220EE0714501D120220AE072
:10184000354D1435A94206D0334A2832914201D190
:101850001A4600E022462F49091F0A6029E0A942E2
:1018600013D0B14215D0B94220D061451BD04945B3
:101870001BD0514502D14FF4001217E0414502D16F
:101880004FF0007212E0594501D102220EE071457D
:1018900001D120220AE0204D1435A94206D01E4A6B
:1018A0002832914201D11A4600E0224613490839F4
:1018B0004A60002180F82010816A00291CD0BDE810
:1018C000F05F0847FFE70825A540154214D01A0726
:1018D00012D50A6822F00E020A6090F84020C36B0D
:1018E000012101FA02F25A60816380F8211000217F
:1018F00080F82010016BE0E7BDE8F09F080002408F
:101900001C000240300002404400024058000240E7
:101910006C000240080402401C04024030B560B173
:101920001C4A03681421934209D21B4A1A44B2FB91
:10193000F1F18900016419490AE0012030BD154A1E
:1019400052421A44B2FBF1F189000164114908398D
:10195000C163022180F821101A6843F6F0718A43AE
:10196000F0E901142143D0E902452C4321430469E5
:1019700021434469214384692143114319600021B3
:1019800041628162C1620163416301224277017752
:10199000084630BD08040240F8FFFDBF00000240C9
:1019A00070B5044690F82000002501280CD00120D5
:1019B00084F8200094F821600020012E06D084F8DD
:1019C00020000225284670BD022070BD022684F842
:1019D0002160A0632068066826F0010606602046A4
:1019E000FFF744F8E06A00282068016802D041F05F
:1019F0000E0106E021F0040101602068016841F059
:101A00000A0101602068016841F001010160D9E725
:101A100031B500F013FE009C0546601C00D0641C2C
:101A200000F00CFE401BA042FAD338BD2DE9F04176
:101A3000054690F845000C46012875D0012685F82A
:101A40004560022085F84400002C70D02A68116897
:101A500041480140D4E900031843D4E902373B432D
:101A60001843AB6818432369184363691843EB684C
:101A70001843A3691843E3691843236A1843636A48
:101A80001843A36A184308431060286807680120B8
:101A9000FFF7BEFF28680760D4E90B010843D4E9CB
:101AA0000D1211430843E16B0843216C0843616C3C
:101AB0000843A16C084329684860286847680120EA
:101AC000FFF7A6FF286847602968E06C88602968EE
:101AD000206DC8602A6891694FF641700140D4E9D1
:101AE00016031843B4F85470236E43EA07431843AF
:101AF000636E1843A36E1843084390612868876992
:101B00000120FFF785FF28688761D4E91B0108439E
:101B10002968C8612868C4690120FFF779FF28682F
:101B2000C46114E000E002E00220BDE8F081296811
:101B3000086820F49042D5E9020318431043086076
:101B4000286804680120FFF763FF2868046005F82F
:101B5000446F00206870E8E70F8120FF2DE9F04313
:101B600090F845400025012C0DD04FF0010C80F875
:101B700045C0022480F8444044F2F4574FF0004935
:101B80005E1E816217E00220BDE8F08301EB0514C0
:101B9000C4F80090C5EBC51808EB480802EB8808AC
:101BA000C4E90178B54204D204F11008C4F80C80ED
:101BB00000E0E1606D1C9D42E8D3026802F58052AE
:101BC000D16080F844C0002180F845100846DBE76A
:101BD0002DE9F043914690F845200024012A0AD0CF
:101BE000012680F84560022280F844204FF4801CD2
:101BF0005D1EC1621BE00220BDE8F08301EB041210
:101C0000C2F800C0C4EBC41707EB470809EB88070C
:101C10009760C7691FB9176847F440071760AC425F
:101C200003D202F11007D76000E0D160641C9C422F
:101C3000E4D3026802F58052116180F8446000210B
:101C400080F845100846D7E7704710B590F8451062
:101C5000012913D0012280F84520022180F8441088
:101C6000816A0C680023002C27DB0C68E40518D57A
:101C7000846B641C8463012C02D002E0022010BD3E
:101C8000016341630C68C4F30D44241FC463046BF7
:101C9000A4680464C96840F8281F027743770020CD
:101CA00010BD0C68A40503D58263C0E90C1302E0E3
:101CB000846B641C8463C968816200F8442F43709C
:101CC000012010BD70B50446006800F580504169E0
:101CD0004FF0000549064FF0010608D5204600F0F8
:101CE000ABF92068402100F58050416109E040696E
:101CF000C0070AD0204600F0A8FA206800F58050FE
:101D0000466184F8446084F8455020684FF480317F
:101D100000F580504161206800F580504069000462
:101D20000CD52046FFF790FF20684FF4004100F5E6
:101D30008050416184F8446084F8455070BD0000D3
:101D40002DE9F8434FF000050400A946009503D0A3
:101D500094F8440018B107E00120BDE8F88384F846
:101D60004550204600F0BEF85948416821F4000172
:101D700041604168226A11434160206800F580504B
:101D8000016841F00101016000F058FC06464FF483
:101D9000FA7708E000F052FC801BB84203D9032018
:101DA00004F8440F57E0206800F580500068C00731
:101DB000F0D12068006920F01C0600F0AFFD454915
:101DC000454A0144914202D246F0080606E04349E2
:101DD00008444349884201D246F00C062068066157
:101DE0004FF400420021204600F030FA0126A8BB43
:101DF000FF20FFF70DFE606888B300F01FFC8046EF
:101E000041F288376A460121204600F0D3F800F0FD
:101E100015FCA0EB0800B84217D800984007F1D590
:101E20004FF480520021204600F010FAB0B900F0C3
:101E300005FC80466A460121204600F0BBF800F010
:101E4000FDFBA0EB0800B8420AD901212046FEF7AD
:101E500051FE04F8446F032065707EE724E018E02B
:101E600000988006E6D56A461021204600F0A2F8C8
:101E7000D0B90098410703D54FF40061E16000E05C
:101E8000E560800701D5A56019E04FF48040A060AF
:101E900015E0E068A168C00840EA510082B2002164
:101EA000204600F0D3F930B101212046FEF722FE92
:101EB00084F8446050E740F6FF70FFF7A9FD4946FB
:101EC0002046FEF717FE84F84460002045E7000036
:101ED0000000014000D3CEFEC0E1E40040F1E9FD86
:101EE00040787D01F0B500682B4985B0884251D11A
:101EF0002A48416941F480414161416901F48041CE
:101F00000491416941F400414161416901F400419A
:101F10000491416941F4803141614069022400F437
:101F20008030009403260194CDE9036069461C4883
:101F300000F09CFA00251B4FCDE900456946384664
:101F4000029500F093FA0420CDE900046946039657
:101F5000384600F08BFA4FF46050CDE90004694632
:101F60000396114800F082FA4FF4E060CDE90005D5
:101F700069460E48029500F079FA0D48416841F42F
:101F800000114160002211463D2000F0D9FB3D20A8
:101F900000F0CAFB05B0F0BD008002400010024016
:101FA0000010014000080140000C014000140140F5
:101FB000000001402DE9F047044690F844009146A6
:101FC00082281DD0822084F84400226810694FF6D0
:101FD000FF7500F01C03208A05EAC02018434FF467
:101FE000F86303EA8111014321F0020040F001058A
:101FF000156100F023FB064601274FF4803810E0FE
:102000000220BDE8F08700BF00F018FB801B4045B0
:1020100005D304F8447F002060700320F1E72068B6
:102020000569E807F0D12068406981B2C9F800105D
:1020300084F844700020E4E77047F8B5044690F84F
:102040004500012839D0012584F84550022084F844
:10205000440020680026016841F008010160206802
:10206000006800902846FEF717FD21680098086078
:102070002068016841F00401016020680068009058
:102080000120FEF709FD2168009808602046FEF750
:1020900013FD206800F58050816941F40051816191
:1020A000206800F58050816941F00201816184F867
:1020B000445084F845600020F8BD0220F8BDF8B512
:1020C000044690F84500012839D0012584F8455090
:1020D000022084F84400206800F58050816921F4D2
:1020E00000518161206800F58050816921F0020172
:1020F000816120680026016821F0040101602068E8
:10210000006800900120FEF7C7FC21680098086075
:102110002046FEF7D1FC2068016821F0080101602B
:102120002068006800900120FEF7B6FC2168009846
:10213000086084F8445084F845600020F8BD02200F
:10214000F8BDF0B590F845200023012A11D00127F1
:1021500080F84570022280F84420002459B1C66AF4
:102160003268002A0ADA122100F8441F4470012064
:10217000F0BD0220F0BD00F8447FF7E740F2F455CF
:10218000A9420BD9B1FBF5FCB1FBF5F205FB1C1C18
:10219000BCF1000F00D0521C012A43D1326842F03A
:1021A00040523260C26AC1F30C015160C16A0A68D0
:1021B00042F000420A60C16AC968C16234E0D6F8E0
:1021C00000C02CF0405CC6F800C033B9C66AD6F82F
:1021D00000C04CF0805CC6F800C0C66A7560561E30
:1021E000B34214D1C66AD6F800C04CF0005CC6F801
:1021F00000C0C2F10106C6EBC61606EB4606D0F8D3
:102200002CC001EB8606C6F30C06CCF80460C66A47
:10221000D6F800C04CF0004CC6F800C0C66A5B1C83
:10222000F668C6629342CAD3016801F580514A69D3
:10223000520705D504224A61016801F580514C60BE
:1022400000F8447F44700020F0BD70472DE9F04154
:10225000044690F8440042281ED0422084F84400EE
:10226000236818694FF6FF7600F01C05208A06EAFD
:10227000C02028434FF4F86505EA8111014390B26C
:1022800041F0030558612068056100F0D7F9064662
:1022900001274FF4803810E00220BDE8F08100BF34
:1022A00000F0CCF9801B404505D304F8447F0020A2
:1022B00060700320F1E720680569E807F0D184F831
:1022C0004470EAE72DE9F047054626480F46012607
:1022D000017E01290FD00121814601762868DFF8AF
:1022E00088804CF25034022808D0A2462046FEF7DF
:1022F000F7FCA8B131E00220BDE8F0872046FEF7E8
:10230000EFFC08BB0120FEF78BFC2046FEF7E8FC43
:10231000D8F81010064621F00401C8F810101CE08F
:102320004FF0FF303860AC6811E02046FEF78AFCC1
:102330005046FEF7D5FCD8F81010060021F0020137
:10234000C8F8101001D03C6007E004F50064D5E93E
:10235000020100EBC120A042E7D8002189F8181043
:102360003046C9E788380020002002400348016950
:1023700041F0800101610020704700000020024010
:102380002DE9F05F07461C4888460024017E15466B
:102390001E46012909D00121814601764CF2503AAE
:1023A0005046FEF79DFC18B122E00220BDE8F09FE8
:1023B000012F02D0022F00D00427D346DFF83CA023
:1023C000220128463146FDF7DFFE81B208EB4400CA
:1023D000FEF74AFC5846FEF783FCDAF8102022F09C
:1023E0000102CAF8102018B9641CE4B2BC42E7D359
:1023F000002289F81820D9E7883800200020024000
:1024000005480169090605D5044941600449416050
:1024100000207047012070470020024023016745DB
:10242000AB89EFCD012810D108480068416A0848FF
:102430008164C26C8A1A026503D54CF250331A4487
:102440000265C164104605F0F3BA7047348200207B
:102450003C010020044910B50A68024202D008601D
:10246000FFF7E0FF10BD0000140401402DE9F84F14
:10247000DFF890A100220AF1040B144601274FF067
:102480000F090BF1040E00BF0B6807FA04F52B408F
:10249000AB4274D1DFF870C14E68A6EB0C086645FC
:1024A0002BD00DDC032E34D005DC36B3012E19D031
:1024B000022E2FD11BE0112E16D0122E2AD119E098
:1024C000B8F5881F19D006DCB8F5803F15D0B8F5EF
:1024D000801F1FD111E0B8F5001F0ED0B8F5041F02
:1024E00018D10AE0CA6815E0CA68121D12E0CA686D
:1024F00008320FE0CA680C320CE08A682AB1012A5F
:102500004FF0080203D0456104E0042202E00561B7
:1025100000E00022FF2B01D8064601E000F104068E
:102520004FEA840501D9A5F12005D6F800C009FAC3
:1025300005F82CEA080C02FA05F54CEA050CC6F879
:1025400000C04D68ED0057D5304DAE6946F001062C
:10255000AE61AD6924F0030605F0010500952C4D30
:1025600006EB050CDCF80850A6074FEA167809FAC6
:1025700008F6B543274EB04202D1002610E03BE0FA
:10258000254EB04201D101260AE0244EB04201D1CD
:10259000022605E0224EB04201D1032600E00426C7
:1025A00006FA08F62E43CCF808604D68DAF80060A9
:1025B000ED03554601D51E4300E09E432E604D6855
:1025C000DBF80060AD035D4601D51E4300E09E438D
:1025D0002E604D68DEF80060ED02754601D51E43A1
:1025E00000E09E432E604D68AD020E4D2E6801D571
:1025F0001E4300E09E432E60641C102CFFF444AF89
:10260000BDE8F88F000401400000111000100240E6
:102610000000014000080140000C01400010014092
:10262000001401400C040140C2684A40C260704777
:102630000AB1016170470904FBE700000148006826
:1026400070470000BC00002002480168491C01607E
:1026500070470000BC000020074810B5016841F039
:1026600010010160032000F08BF8002000F006F854
:1026700000F018F8002010BD0020024010B50446FC
:1026800007484FF47A710068B0FBF1F000F0EDFC00
:1026900000222146501E00F053F8002010BD00001B
:1026A000B80000201E4808B5816941F00101816130
:1026B000806900F001000090032000F061F8002222
:1026C00011466FF00B0000F03BF8002211466FF04E
:1026D0000A0000F035F8002211466FF0090000F002
:1026E0002FF800221146501F00F02AF80022114650
:1026F000101F00F025F800221146901E00F020F86F
:1027000000221146501E00F01BF80648416821F0D7
:10271000E0614160416841F00071416008BD000026
:10272000001002400000014000F01F020121914012
:102730004009800000F1E020C0F80011704700005F
:10274000F0B40E4B1B680C46C3F30223C3F107051C
:10275000042D00D90425191D072901D2002300E00A
:10276000DB1E012606FA05F1491E214099409E40D4
:10277000761E16403143F0BC01F08EBB0CED00E03C
:10278000064900F0070208684FF6FF03184040EAC8
:102790000220034A10430860704700000CED00E07F
:1027A0000000FA05BFF34F8F05480168054A01F4A0
:1027B000E06111430160BFF34F8F00BFFDE70000F0
:1027C0000CED00E00400FA052DE9F047DFF83C814C
:1027D00005460E46D8F8000000F00700B0420CD2C3
:1027E000D8F8001021F007013143C8F80010D8F8DC
:1027F000000000F00700B04263D12878444C800705
:1028000005D56068A96820F0F0000843606028786A
:10281000C00745D06868012816D02168022816D064
:10282000890700294DDA616821F0030101436160E5
:10283000FFF704FF6968074641F2883001290FD08D
:102840000229814619D027E021688903E9E7890137
:10285000E7E700BFFFF7F2FEC11B494501D918E0C9
:1028600081466068C0F381000128F3D118E000BF01
:10287000FFF7E4FEC11B49450BD86068C0F3810037
:102880000228F5D10CE000BFFFF7D8FEC11B494577
:1028900002D90320BDE8F087606810F00C0FF3D177
:1028A000D8F80010404601F00701B1420BD9016889
:1028B00021F0070131430160006800F00700B042D9
:1028C00001D00120E6E72878400705D56068E9686F
:1028D00020F4E060084360602878000706D560684F
:1028E000296920F4605040EAC100606000F03CF8C3
:1028F0006168084AC1F30311515CC8400649086089
:102900000020FFF7BBFE0020C4E7000000200240CB
:1029100000100240B8B70108B80000200148006864
:1029200070470000B8000020044805490068496865
:10293000044AC1F30221515CC8407047B80000202E
:1029400000100240C8B701080448054900684968FA
:10295000044AC1F3C221515CC8407047B80000204E
:1029600000100240C8B7010810B51DA288B00FCAF8
:1029700004AC84E80F001EA30FCB8DE80F002049A4
:102980004B68204803F00C02042A02D0082A02D027
:102990001D4808B010BD04AAC3F38344DB03125DD5
:1029A0001BD5CB6ACC6A03F00F031DF80330E40398
:1029B0000AD5CC6AC96AC4F30314641CB0FBF4F0F2
:1029C000C1F30321891C4843B0FBF3F09DF81D10AF
:1029D00050439142DDD14008DBE70C485043D8E733
:1029E000000004050607080900000000000D0000B3
:1029F0000102030405060708090A0B0C0D0E0F104F
:102A00000010024040787D0100127A0000093D006C
:102A100030B585B000200290022001900320039081
:102A20000B4C4FF480700090A0690D4640F00400FC
:102A3000A061A069694600F0040004900548FFF712
:102A400015FD606820F070602843606005B030BDFF
:102A500000100240000801402DE9F84F04460078BC
:102A6000EA4DC00748D06868C0F38100012807D04C
:102A70006868C0F38100022809D16868C00306D5E0
:102A80002868800338D5A06800286FD034E0A0689B
:102A9000B0F5803F0BD010B1B0F5A02F11D0286851
:102AA00020F480302860286820F4802002E0286824
:102AB00040F480302860A06888B1FFF7BFFD06466B
:102AC00009E0286840F480202860F0E7FFF7B6FDB1
:102AD000801B642878D828688003F7D50CE0FFF7BE
:102AE000ADFD064605E000BFFFF7A8FD801B64288A
:102AF000F0D828688003F7D42078C54E80074FF0BF
:102B000001094FF000073CD5686810F00C0F07D0A2
:102B10006868C0F38100022809D16868C00306D440
:102B20002868800715D5606901281FD111E0606908
:102B3000B8B1C6F80090FFF781FD804606E000BFFF
:102B4000FFF77CFDA0EB08000228C3D828688007A7
:102B5000F6D52868A16920F0F80040EAC100286095
:102B60000FE03760FFF76AFD804607E02DE100BF08
:102B7000FFF764FDA0EB08000228ABD828688007A7
:102B8000F6D4207800072ED5A248E169E9B1C0F853
:102B90000090FFF753FD804606E000BFFFF74EFDB3
:102BA000A0EB0800022895D8686A8007F6D59A48F5
:102BB0004FF4FA510068B0FBF1F0009000BF0098AC
:102BC000411E0091FAD20EE0B0E00760FFF736FD3B
:102BD000804605E0FFF732FDA0EB0800022887D809
:102BE000686A8007F6D42078400763D5E8694FF01B
:102BF0000008C00009D4E86940F08050E861E86945
:102C00004FF0010800F08050009084480168C90529
:102C100012D40168834641F480710160FFF70EFD14
:102C2000824605E0FFF70AFDA0EB0A0064287DD884
:102C3000DBF80000C005F5D5206901280AD008B1ED
:102C4000052813D0286A20F001002862286A20F0A5
:102C5000040002E0286A40F001002862206941F285
:102C6000883B98B1FFF7EAFC82460BE0286A40F007
:102C700004002862EEE700BFFFF7E0FCA0EB0A01CA
:102C8000594553D8286A8007F6D50CE0FFF7D6FCE3
:102C9000824605E0FFF7D2FCA0EB0A01594545D872
:102CA000286A8007F6D4B8F1000F03D0E86920F055
:102CB0008050E861E06AD0B36968C90307D56968E4
:102CC000C1F38101022902D1E96AC9037DD4022836
:102CD00008D0E86A20F48030E862B766FFF7AEFCFF
:102CE00080463BE02868C00005D5E86A616B00F0CB
:102CF000F000884269D1B766FFF7A0FC804605E086
:102D0000FFF79CFCA0EB0800642874D82868000139
:102D1000F6D4E86A616B20F0F0000843E862E86AE4
:102D2000216B20F470600843E86201E063E018E082
:102D3000C6F86890FFF782FC804605E0FFF77EFC4E
:102D4000A0EB0800642856D828680001F6D508E0F2
:102D5000FFF774FCA0EB080064284CD82868000139
:102D6000F6D4206A90B36968C1F3810102294AD080
:102D70000228376603D0FFF761FC04463EE0FFF708
:102D80005DFC074605E000BFFFF758FCC01B0228AA
:102D900031D828688001F7D4606AB0F5803F09D146
:102DA000E86A61680843E862E86AE16820F00F00B9
:102DB0000843E862D4E909010843696821F4741101
:102DC00008436860C6F8609001E01CE019E0FFF776
:102DD00035FC044605E000BFFFF730FC001B02286D
:102DE00009D828688001F7D50BE000BFFFF726FC63
:102DF000001B022802D90320BDE8F88F2868800153
:102E0000F4D40020F8E70120F6E7000000100240AB
:102E10000000424280044242B8000020007000409E
:102E200070B5040005D00025A56294F8510010B1DA
:102E300004E0012070BD204600F034F8022084F840
:102E400051002068016821F040010160D4E90101CE
:102E50000843D4E903121143084361690843218BF5
:102E600001F400710843E1690843216A0843A16A3B
:102E7000084321680860A069042101EA1040616AE2
:102E80000843216848602168E06A08612068C169D8
:102E900021F40061C1616565012084F851000020C2
:102EA00070BD000000B500680C4985B0884212D1A1
:102EB0000B48816941F4805181618069694600F461
:102EC00080500490A02000900220019003200390E5
:102ED0000448FFF7CBFA05B000BD00000030014008
:102EE00000100240000801402DE9F84F044690F818
:102EF00050000026994617460D4601280DD04FF088
:102F0000010B84F850B0FFF799FB804694F851000C
:102F1000B246012804D0022694E00220BDE8F88FD2
:102F2000002D7BD0002F79D0032084F85100C4F805
:102F300054A02563A786E786C4F838A0A4F83CA06F
:102F4000A4F83EA0C4F844A0C4F840A0A068B0F51E
:102F5000004F04D12068016841F48041016020687D
:102F60000168490603D4016841F040010160E0684E
:102F7000B0F5006F606804D030B3E08E012823D034
:102F80003EE010B1E08E01281AD135F8021B20680E
:102F900005E020688168890706D535F8021BC16005
:102FA000E08E401EE0860BE0B9F1000F34D0B9F19D
:102FB000FF3F05D0FFF742FBA0EB080149452BD2AC
:102FC000E08E0028E5D11EE0216815F8010B08739A
:102FD00006E020688168890706D515F8011B017392
:102FE000E08E401EE0860BE0B9F1000F14D0B9F17D
:102FF000FF3F05D0FFF722FBA0EB080149450BD2AC
:10300000E08E0028E5D14B46012202212046CDF872
:10301000008000F062FF10B1032613E011E0424689
:103020004946204600F049FF18B10126202060657E
:1030300008E0A06818B92068C16880680090606DD9
:1030400000B1012684F851B084F850A0304665E7FD
:103050004FF0E0210428086903D020F00400086143
:10306000704740F00400FAE7704710B5401EB0F119
:10307000807F01D3012010BD4FF0E02460610F215B
:10308000601700F009FF0020A061072020610020E8
:1030900010BD10B5FFF7E8FF10BD7047704730B5A1
:1030A00090F83C20012A20D0012280F83C20022305
:1030B00080F83D3003685C6824F070045C6003684D
:1030C0005C680D682C435C6003689C6824F0800495
:1030D0009C6003689C6849680C439C6080F83D20B4
:1030E000002180F83C10084630BD022030BD10B5EC
:1030F000040003D094F83D0010B107E0012010BD9A
:10310000002084F83C00204600F00CF8022084F8EF
:103110003D00211D206800F0B9FF012084F83D002A
:10312000002010BD08B501681048B1F1804F0BD0E8
:103130000F4A914207D1C16941F00201C161C069E2
:1031400000F00200009008BDC16941F00101C161B9
:10315000C069002200F00100009011461C20FFF71A
:10316000EFFABDE808401C20FFF7DEBA001002406D
:1031700000040040022180F83D1001680A6842F016
:1031800001020A60012180F83D10002070470168AB
:10319000CA6842F00102CA600068016841F001019A
:1031A00001600020704770B5044690F83C0001288B
:1031B00017D0012584F83C50022084F83D00206897
:1031C000826822F0770222F47F42826008685028E9
:1031D00037D00DDC202859D005DC88B3102841D128
:1031E00051E0022070BD302853D040283AD13FE052
:1031F00060282ED070280BD0B0F5805F03D0B0F5DA
:10320000005F2FD110E02068816821F0070115E0F0
:10321000CB68D1E90121206800F076FF2168886839
:1032200040F0770088601DE0CB68D1E9012120687B
:1032300000F06AFF2068816841F48041816011E0FC
:103240001EE0CA684968206800F070FF50212068BD
:1032500006E0CA684968206800F079FF60212068AC
:1032600000F05CFF84F83D50002084F83C0070BD05
:10327000CA684968206800F059FF40212068EFE7DC
:1032800000212068ECE710212068E9E72021206870
:10329000E6E730212068E3E7704770B50446006830
:1032A00001694FF00005C943890715D4C168C943B6
:1032B000890711D4E91E0161012020772068806907
:1032C0008007204602D0FFF7E7FF04E000F098F8FF
:1032D000204600F096F8257720680169C943490720
:1032E00017D4C168C943490713D46FF004010161C1
:1032F000022020772068806910F4407F204602D0A9
:10330000FFF7CAFF04E000F07BF8204600F079F8F0
:10331000257720680169C943090716D4C168C943E4
:10332000090712D46FF0080101610420207720689A
:10333000C0698007204602D0FFF7AEFF04E000F02E
:103340005FF8204600F05DF8257720680169C943E1
:10335000C90617D4C168C943C90613D46FF0100158
:103360000161082020772068C06910F4407F204662
:1033700002D0FFF791FF04E000F042F8204600F091
:1033800040F8257720680169C943C90708D1C16899
:10339000C943C90704D1891E0161204600F032F8F3
:1033A00020680169C943090609D4C168C9430906EF
:1033B00005D46FF0800101612046FFF76EFE2068A2
:1033C0000169C943490609D4C168C943490605D4FE
:1033D0006FF040010161204600F01AF82068016991
:1033E000C94389060BD4C168C943890607D46FF065
:1033F000200101612046BDE87040FFF74FBE70BD5F
:103400007047704701490120087070479001002003
:103410007047704770B5026804461068D1685369F8
:1034200010F00F0F51D003F0010501F490763543F1
:103430005DD0C20705D0CA0503D5E26B42F0010298
:10344000E263420705D5DA0703D0E26B42F00202DD
:10345000E263820705D5DA0703D0E26B42F004028B
:10346000E263020705D5DA0703D0E26B42F00802F7
:10347000E263E26B002A34D0800604D5880602D5C8
:10348000204600F0D6FE20684069E16BC0F3801052
:1034900001F008010143204624D000F0B3FE20686B
:1034A000416949061AD5416921F040014161606BCB
:1034B000A0B11B494163606BFEF774F8002810D07F
:1034C000606B416BBDE87040084783060FD58B06E3
:1034D0000DD52046BDE8704000F0ABBE2046FFF79A
:1034E00098FF70BDFFF795FF0020E06370BD0306F5
:1034F00006D50B0604D52046BDE8704000F09CBF01
:103500004006F3D54806F1D5D168204621F04001A8
:10351000D160202184F8391000F068F970BD0000F6
:103520007341010870B5040004D094F839000025F7
:1035300010B106E0012070BD84F83850204600F03C
:1035400023F8242084F839002068C16821F4005150
:10355000C160204600F0B8FE2068016921F4904166
:1035600001612068416921F02A0141612068C16838
:1035700041F40051C160E563202084F8390084F8EB
:103580003A00002070BD0000F0B50646394F0368D0
:103590000025394802210322384C85B0BB4223D193
:1035A000C36943F40033C361C069354E00F4003091
:1035B00004902020CDE90001039269463046FEF7D1
:1035C00055FF4020CDE90005694630460295FEF7DB
:1035D0004DFF606840F00800606000221146262020
:1035E000FFF7AEF8262040E0264FBB423FD1C3692B
:1035F00043F48023C361C069039200F480200490E7
:103600003815CDE90001204F69463846FEF72EFFF8
:10361000F814CDE90005694638460295FEF726FF05
:10362000606820F030006060606840F0100060600A
:10363000174C164820601020C4E901058020C4E919
:1036400003056561A5612046E561FEF767F920B1D4
:1036500040F259110FA000F071FF346300221146AF
:1036600027206662FFF76CF82720FFF75DF805B0AA
:10367000F0BD000000440040001002400000014086
:103680000014014000480040001001401C000240AE
:10369000F48200202E2E2F5372632F73746D3332F9
:1036A000663178785F68616C5F6D73702E630000BF
:1036B00090F83A30202B22D1F9B1F2B190F838309D
:1036C000012B1CD081628285C2850021C163222228
:1036D00080F83A2080F838100168CA6842F4807295
:1036E000CA6001684A6942F001024A610068C16823
:1036F00041F02001C1600020704701207047022086
:103700007047000070B51649164E174C05468842A2
:1037100013D10A683078506009680A68D2431206EB
:10372000FBD42168486020680168C9430906FBD4BE
:1037300001220C490A48FFF7BBFFA5420FD12168BF
:103740007078486020680168C9430906FBD4BDE869
:10375000704004490122491C0348FFF7A9BF70BD0E
:103760007482002092010020B482002070B50446CB
:1037700090F83900202830D169B362B394F838004A
:1037800001282AD0012084F838002162A284E28432
:103790000025E563212084F83900236B10489862E6
:1037A000236B1048D862236B0F481863206B1346B5
:1037B00045632668206B321DFEF7F2F821686FF032
:1037C0004000086084F838502068416941F0800169
:1037D0004161002070BD012070BD022070BD00005D
:1037E000CD410108FB410108834101087047704742
:1037F000FEE7000070B50C4D04460022402128462B
:10380000FEF716FF012211020848FEF711FF200AF9
:1038100005F04CFAE0B205F049FA2846BDE87040E0
:1038200001224021FEF704BF0008014000180140BA
:1038300070B5064600219F237F22084600F03EF91E
:103840002C2000F085F9002400253046FFF7D2FF38
:103850006D1CA02DF9D3641C802CF5D370BD000025
:1038600010B500F015F9112000F072F9782001F080
:1038700013FDB12000F06CF9012000F04DF92C206F
:1038800000F04AF92D2000F047F9B22000F060F96D
:10389000012000F041F92C2000F03EF92D2000F02D
:1038A0003BF9B32000F054F9012000F035F92C2049
:1038B00000F032F92D2000F02FF9012000F02CF952
:1038C0002C2000F029F92D2000F026F9B42000F07A
:1038D0003FF9072000F020F9C02000F039F9A220BC
:1038E00000F01AF9022000F017F9842000F014F912
:1038F000C12000F02DF9C52000F00EF9C22000F023
:1039000027F90A2000F008F9002000F005F9C3208B
:1039100000F01EF98A2000F0FFF82A2000F0FCF8E1
:10392000C42000F015F98A2000F0F6F8EE2000F02F
:10393000F3F8C52000F00CF90E2000F0EDF8362069
:1039400000F006F9C02000F0E7F8E02000F000F9F0
:103950000F2000F0E1F81A2000F0DEF80F2000F050
:10396000DBF8182000F0D8F82F2000F0D5F8282038
:1039700000F0D2F8202000F0CFF8222000F0CCF8A0
:103980001F2000F0C9F81B2000F0C6F8232000F02B
:10399000C3F8372000F0C0F8002000F0BDF8072081
:1039A00000F0BAF8022000F0B7F8102000F0B4F8E8
:1039B000E12000F0CDF80F2000F0AEF81B2000F061
:1039C000ABF80F2000F0A8F8172000F0A5F833207E
:1039D00000F0A2F82C2000F09FF8292000F09CF8BD
:1039E0002E2000F099F8302000F096F8302000F0FA
:1039F00093F8392000F090F83F2000F08DF8002077
:103A000000F08AF8072000F087F8032000F084F81F
:103A1000102000F081F82A2000F09AF8002000F031
:103A20007BF8002000F078F8002000F075F87F2087
:103A300000F072F82B2000F08BF8002000F06CF8FA
:103A4000002000F069F8002000F066F89F2000F0E8
:103A500063F8F02000F07CF8012000F05DF8F6201B
:103A600000F076F8002000F057F83A2000F070F8E7
:103A7000052000F051F8292000F06AF80122BDE885
:103A8000104051020148FEF7D3BD0000001801406C
:103A900010B5094C002280212046FEF7C9FD6420A4
:103AA00001F0FAFB012280212046FEF7C1FDBDE8AE
:103AB0001040322001F0F0BB001801402DE9F04128
:103AC00007461C4615460E462A2000F041F8002005
:103AD00000F022F8BF1CF8B200F01EF8002000F041
:103AE0001BF8AD1CE8B200F017F82B2000F030F8FE
:103AF000002000F011F8761CF0B200F00DF8002064
:103B000000F00AF8641CE0B200F006F8BDE8F041ED
:103B10002C2000F01DB8000070B50B4C05460022AB
:103B200040212046FEF784FD012211020748FEF7DE
:103B30007FFD284605F0BAF82046BDE87040012216
:103B40004021FEF775BD000000080140001801404B
:103B500070B50B4C0546002240212046FEF768FD5B
:103B60000022A1150748FEF763FD284605F09EF8E0
:103B70002046BDE8704001224021FEF759BD0000FB
:103B800000080140001801400E4810B50C490160C2
:103B90000C21416000214FF480228160C0E90312B2
:103BA0004FF4A002C0E90521C16101624162816256
:103BB000C162FDF7C7FA002800D0FEE710BD000083
:103BC00000640040588100202DE9F0474B4886B042
:103BD000816941F010018161816901F01001049156
:103BE000816941F004018161816901F0040104915E
:103BF000816941F008018161816901F00801049146
:103C0000816941F040018161816901F040010491C5
:103C1000816941F0200181618069DFF8E48000F072
:103C200020000490012240214046FEF701FD354F5F
:103C3000002280213846FEF7FBFC01224FF463414D
:103C40003846FEF7F5FCDFF8C0904FF470460122CD
:103C500031464846FEF7ECFCDFF8B0A001224FF4F5
:103C60009E515046FEF7E4FC40200124CDE90004BB
:103C70000325694603954046FEF7F8FB244869464C
:103C8000CDE90040002002902248FEF7EFFB4EF203
:103C90008030CDE90004694603953846FEF7E6FB1F
:103CA0001127CDE900670226694648460396FEF7CC
:103CB000DDFB4FF47070CDE900076946039650466E
:103CC000FEF7D4FB2002CDE9000669460395404685
:103CD000FEF7CCFB2003CDE900046946039550466E
:103CE000FEF7C4FB002211460620FEF729FD062040
:103CF000FEF71AFD06B0BDE8F08700000010024094
:103D0000000801400018014000140140001001406B
:103D100000003110000C01400EB503F0F5FF15490D
:103D20000020164A0860091D124B0860091D08335F
:103D30000860CDE90002104902911A1F111F1048B6
:103D400004F0ACFB0E4804F005FC0D4890F833007D
:103D500040070B4802D504F067FC01E004F000FCCA
:103D60000849074804F02EFCBDE80E40044802F064
:103D70005DB90000C4000020FD660108E967010884
:103D8000A83800202569010810B5074802F040FD59
:103D900004F0E6FF044802F099FD0348FCF79CFD9F
:103DA000BDE8104007F0BEB9A83800200E4810B595
:103DB0000C4901604FF48271416000218160C16053
:103DC0004FF400720161C0E905120822C0E9072121
:103DD000416281620A21C162FFF722F8002800D007
:103DE000FEE710BD003001409C81002010B5134853
:103DF00086B04FF08041016041F61F410024C0E9C8
:103E000001146321C0E903148461FFF770F900B164
:103E1000FEE74FF48050009069460848FFF7C3F969
:103E200000B1FEE7049404A904480594FFF737F9AC
:103E3000002800D0FEE706B010BD0000F48100208D
:103E400010B5134886B01149016047210024C0E92C
:103E500001144CF25031C0E903148461FFF747F9B3
:103E600000B1FEE74FF48050009069460848FFF724
:103E70009AF900B1FEE7049404A905480594FFF7F8
:103E80000EF9002800D0FEE706B010BD0004004087
:103E900034820020FEE770470907090E002806DA81
:103EA00000F00F0000F1E02080F8141D704700F1D1
:103EB000E02080F800147047704738B50B46009238
:103EC00004460022802100F008F8002804D0606D2C
:103ED00040F020006065032038BD2DE9F0411D460B
:103EE00017460E460446DDF8188035E0681C33D0CE
:103EF0002DB1FEF7A3FBA0EB0800A8422CD320684D
:103F0000416821F0E00141606068B0F5827F0BD12B
:103F1000A068B0F5004F02D0B0F5806F04D12068E2
:103F2000016821F040010160A06AB0F5005F0AD18C
:103F3000206801684DF6FF72114001602068016839
:103F400041F400510160012084F85100002084F800
:103F500050000320BDE8F0812068806836EA000048
:103F600004D00020B842C1D10020F3E70120F9E7D6
:103F7000704710B5FEF768FBBDE81040FFF789B841
:103F800030B593B0012528040421CDE902010224B3
:103F9000CDE908400095019005954FF4E010CDE97A
:103FA0000A044FF4C0600C9040200D906846FEF764
:103FB00053FD00B1FEE70F20CDE90E0400204FF4C1
:103FC0008061CDE91001129002210EA8FEF7FCFBE2
:103FD00000B1FEE700224FF030611046FEF718FDF9
:103FE000FEF79CFC4FF47A71B0FBF1F0FFF73DF85F
:103FF0000420FFF72DF80B48C16A21F0F00141F0D1
:104000004001C162C16A21F4704141F40041C162C2
:104010000548056700221146501EFEF791FB13B0BC
:1040200030BD00000010024000004242104801680C
:1040300041F00101016041680E4A11404160016890
:104040000D4A11400160016821F48021016041683E
:1040500021F4FE014160016821F0A05101604FF49C
:104060007F0181600021C1620449C003086070477C
:10407000001002400000FFF0FFFFF6FE08ED00E038
:104080000148FFF70AB90000F4810020F0B502688A
:10409000194B1A4C1A4D1B4E4FF08047984207D0CF
:1040A000B84205D0A04203D0A84201D0B04204D10A
:1040B00022F0700C4A6842EA0C02984207D0B842DB
:1040C00005D0A04203D0A84201D0B04203D122F4CF
:1040D0004074CA68224322F080044A692243026085
:1040E0008A68C2620A688262984201D109690163E2
:1040F00001214161F0BD0000002C0140000400409E
:1041000000080040000C004010B5846842EA032219
:1041100024F47F440A432243826010BD826822F067
:1041200070020A4342F007018160704710B5036ACC
:10413000046A24F001040462846924F0F00444EA6F
:10414000021423F00A020A438461026210BD10B512
:10415000036A23F0100303628369046A23F4704343
:1041600043EA023224F0A00343EA011182610162B2
:1041700010BD10B5406A0021C185C184FFF749F91F
:1041800010BD70B5446A2068406994F83910C0F3D6
:10419000C0100025212904D118B1E584204600F083
:1041A0003FF82068406994F83A10C0F38010222943
:1041B00004D118B1E585204600F024F8E06B40F00A
:1041C0001000E0632046FFF724F970BD10B50146EA
:1041D000406A0968096889060CD40021C184016815
:1041E0004A6922F080024A610068C16841F04001DA
:1041F000C16010BDFFF7FAFA10BD10B5406AFFF7B5
:10420000F6FA10BD0168CA6822F49072CA600168AB
:104210004A6922F001024A61202180F83A10704771
:104220000168CA6822F0C002CA60202180F83910F3
:10423000704710B590F83A10222901D0022010BD25
:104240008168B1F5805F11D00169002901681FD034
:10425000496801F07F03816A4A1C82620B70C18D3C
:10426000491E0904090CC18518D02BE00269816A36
:10427000002A0268526805D0D2B20A80816A491CBD
:104280008162ECE7C2F308020A80816A891CF7E7C1
:104290004A68816A4B1C83620A70E0E70168CA6859
:1042A00022F02002CA600168CA6822F48072CA60E3
:1042B00001684A6922F001024A61202180F83A101F
:1042C000FFF720FA002010BD2DE9F04104460068F8
:1042D0000169E26821F44051114301612169A0683C
:1042E0000843616908432168CA6841F20C639A4334
:1042F0000243CA6020684169A26921F440711143F8
:1043000041614C4920686425322688423CD1FEF741
:104310001BFB00EBC00101EB001061688900B0FBE2
:10432000F1F7FEF711FB00EBC00101EB0010616833
:10433000B0468900B0FBF1F0B0FBF5F06FF018016A
:10434000484307EB800106EB0110B0FBF5F000F0ED
:10435000F006FEF7F9FA00EBC00101EB001061680E
:104360008900B0FBF1F0B0FBF5F006EB0016FEF7AC
:10437000EBFA00EBC00101EB001061688900B0FBB3
:10438000F1F7FEF7E1FA3BE0FEF7CEFA00EBC001F1
:1043900001EB001061688900B0FBF1F7FEF7C4FA89
:1043A00000EBC00101EB00106168B0468900B0FB72
:1043B000F1F0B0FBF5F06FF01801484307EB800116
:1043C00006EB0110B0FBF5F000F0F006FEF7ACFADA
:1043D00000EBC00101EB001061688900B0FBF1F057
:1043E000B0FBF5F006EB0016FEF79EFA00EBC001FD
:1043F00001EB001061688900B0FBF1F7FEF794FA59
:1044000000EBC00101EB001061688900B0FBF1F026
:10441000B0FBF5F06FF01801484307EB800108EBA3
:104420000110B0FBF5F0216800F00F003044886007
:10443000BDE8F0810038014090F83910212901D001
:10444000022070478168B1F5805F016A0BD04A1C79
:104450000262026809785160C18C491E0904090C86
:10446000C1840ED017E009880268C1F308015160C9
:1044700001690029016A02D0491C0162ECE7891C2C
:10448000FBE70168CA6822F08002CA600068C16860
:1044900041F04001C1600020704700000148FEF774
:1044A000B9BF0000748200200148FEF7B3BF0000CE
:1044B000B4820020FEE7000010B590F83300C10779
:1044C000094806D00121017008A003F06BF907A08C
:1044D00005E0052101700FA003F064F90DA0BDE80F
:1044E000104000F02DB80000D400002020205374AC
:1044F0006174653A204C6F6F6B696E6720666F72EE
:10450000204448435020736572766572202E2E2E0B
:104510000A000000546865206E6574776F726B2026
:104520006361626C65206973206E6F7420636F6EC7
:104530006E6563746564200A00000000FEE70000F9
:104540000FB4054B10B503A9044A029800F0F0F827
:1045500010BC5DF814FB0000D569010804020020BE
:104560000FB4084B10B504A902AA039800F0E0F8B4
:10457000044602A9002000F072FC204610BC5DF841
:1045800014FB00005F4E010837B514460846064B81
:104590006A46214600F0CCF804466946002000F047
:1045A0005EFC20463EBD00005F4E010802E008C8E8
:1045B000121F08C1002AFAD170477047002001E09D
:1045C00001C1121F002AFBD1704700002DE9FF5FD7
:1045D000DDE90220010DDDF838B0024318D044F6C1
:1045E0001050A1F2FF3141430D140F98012820D043
:1045F000A5EB0B00401C5FEA000A4FF00004474E99
:10460000DFF81C91A046504616D5CAF1000728E0F5
:104610000F98012443A2012808D0002100980F9B85
:10462000C0E90021C0E90243BDE8FF9F6FEA0B012A
:10463000F4E7CBF10000DEE7074612E0F80707D009
:104640002246334640464946FBF7DFFE8046894610
:104650002246334610461946FBF7D7FE04460E465F
:104660007F10002FEAD1DDE90201BAF1000F4246C6
:104670004B4602DAFBF7C9FE01E0FBF738FF0446C0
:104680000E460022284BFBF7B9FF03D84FF0FF304E
:10469000014607E00022254B20463146FBF70EFE7F
:1046A000FBF794FF102409E0002C0ADB0A22002308
:1046B000FBF7D3FD019B30321A55641E50EA01020C
:1046C000F2D1641C019AC4F1110314440F9A012A17
:1046D00003D0012208430DD10AE0084304D0002092
:1046E0004FF0110B0F9080E7A3EB0B056D1E0DE053
:1046F0005B4504DD4FF0000205F1010504E003DA3B
:104700004FF00002A5F10105002AECD000980F99A6
:10471000C0E90231C0E9004586E7000000002440FE
:104720000000F03F300000000000F0430000E03FD8
:104730002DE9FF4F95B09B468946064600250FE2BE
:10474000252877D100242746F84A0121059400E066
:10475000044316F8013F203B01FA03F01042F7D161
:1047600030782A2811D06FF02F033078A0F1300272
:10477000092A16D8059A44F0020402EB820203EBE0
:1047800042021044761C0590EFE759F8042B05927D
:10479000002A03DA504244F40054059044F0020425
:1047A000761C30782E2816D116F8010F44F0040438
:1047B0002A280DD06FF02F023078A0F13003092B9A
:1047C00009D807EB870302EB4303C718761CF3E70E
:1047D00059F8047B761C30786C280FD006DC4C2806
:1047E00017D068280DD06A2814D104E0742810D09E
:1047F0007A280FD10DE044F400140AE044F4801448
:1048000001E044F440147278824202D104F580142D
:10481000761C761C307866280BD013DC582877D0AD
:1048200009DC002875D04528F6D04628F4D0472862
:104830001AD19DE118E0632835D0642879D0652825
:1048400012D195E1702873D008DC6728F1D069286F
:104850006FD06E280DD06F2806D1B5E073282CD00C
:10486000752875D0782874D05A46179990476D1CD2
:1048700075E1C4F30250022809D003280DD0D9F8FD
:10488000001004280DD00D6009F1040967E1D9F882
:104890000010EA17C1E90052F6E7D9F800100D80C0
:1048A000F2E70D70F0E719F8041B8DF800100020F6
:1048B0008DF80100EA46012003E059F804AB4FF0FF
:1048C000FF3061074FF0000102D40DE008F1010153
:1048D0008846B9420FDA8045F8DB1AF8081000293B
:1048E000F4D108E008F1010188468142FADB1AF8A8
:1048F00008100029F6D105985B46A0EB0807214671
:104900003846179A00F094FA284400EB080507E0AF
:104910004DE029E10DE01AF8010B5A46179990472E
:10492000B8F10108F7D25B4621463846179A13E1E1
:1049300042E00A220092C4F302524FF0000A022A17
:1049400008D059F804CB032A4FEAEC710AD00DE0E5
:1049500029E02AE009F1070121F00702F2E802C18B
:10496000914609E00FFA8CFC4FEAEC71042A03D15E
:104970004FFA8CFC4FEAEC71002907DA0A46002155
:10498000DCF1000C61EB02012D2202E0220504D5CE
:104990002B228DF80420012203E0E20701D020221F
:1049A000F7E7904659E00A2102E010220DE01021BD
:1049B0004FF0000A00910BE010224FF0000A44F083
:1049C00004040827009203E008224FF0000A009236
:1049D000C4F30252022A05D059F804CB0021032A5D
:1049E00008D009E009F1070121F00702F2E802C14D
:1049F000914605E01FFA8CFC042A01D10CF0FF0C53
:104A00004FF00008220728D5702806D0009B83F0BD
:104A1000100353EA0A0305D00EE040228DF804206B
:104A2000012208E05CEA010206D030228DF8042061
:104A30008DF8050002229046009B83F0080353EA9C
:104A40000A030AD15CEA010201D1620705D53022CE
:104A50008DF804204FF001087F1E582804D034A0A0
:104A600003900EA802900DE036A0F9E75346604689
:104A7000009AFBF7F2FB84460398825C0298401E82
:104A8000029002705CEA0100F0D1029806A9081AAF
:104A900000F1200A600702D524F4803400E00127E9
:104AA000574502DDA7EB0A0000E0002000EB0A01F9
:104AB000009005984144401A0590E00306D45B46F7
:104AC0002146179A059800F0B3F90544002706E03F
:104AD00001A85A46C05D179990476D1C7F1C474539
:104AE000F6DBE0030CD55B462146179A059800F0EB
:104AF0009FF9054404E030205A46179990476D1CF1
:104B00000099481E00900029F5DC08E002980299FF
:104B10005A460078491C0291179990476D1CBAF1CA
:104B20000001AAF1010AF1DC65E100000928010099
:104B30003031323334353637383961626364656613
:104B400000000000303132333435363738394142D5
:104B5000434445460000000000F058F90544761C27
:104B6000307800287FF4ECAD19B02846BDE8F08F0E
:104B7000620700D4062709F1070222F0070CFCE8BF
:104B80000223E14603F000485FEA080C02D00FF26E
:104B9000702C0DE05FEA045C02D50FF2682C07E090
:104BA0005FEAC47C02D00FF2602C01E0AFF2700C1F
:104BB0004FF0FF3823F00043CDF850C065280CD0EB
:104BC00006DC452809D046281DD047283DD13DE0C8
:104BD000662818D067287ED138E00021112F01DB2C
:104BE000112000E0781CCDE9000106A90EA8FFF70E
:104BF000EDFCDDE90F010E9A03910021009207F10F
:104C0000010A04914DE04FF000400097CDE90110FA
:104C100006A90EA8FFF7DAFCDDE90F0203920E9B4E
:104C200011990022DDF80CA00093049211B9791CAF
:104C300000EB010AB7EB0A0004D4C0F1FF3007F122
:104C4000010A0490AAEB0700019044E0012F00DA6A
:104C500001270021112F01DD112000E03846CDE9A8
:104C6000000106A90EA8FFF7B1FCDDE90F010E9ABD
:104C70000391002104910092BA4621070CD40399B4
:104C8000514500DA8A46BAF1010F05DD009AAAF112
:104C90000101515C302908D0B84202DA10F1040F4A
:104CA00006DA0121CDE9011015E0AAF10101E9E7D9
:104CB000002805DC049901440491AAEB000102E0FC
:104CC000411C514500DD8A460499401A401C019060
:104CD0004FF000400290200704D40198504501DBBA
:104CE000CDF8048000208DF84F0002980DF14F0799
:104CF000B0F1004F25D02B200E9002984FF0020803
:104D000000280CDA404202902D200E9007E00A2184
:104D10000298FBF78CFA3031029007F8011DB8F1C8
:104D20000001A8F10108F2DC02980028EFD1791EF9
:104D30000E980870307800F0200040F0450007F829
:104D4000020D12A8C01B00F107081498007800B1EA
:104D5000012000EB0A01019801EBE0710598414444
:104D6000401A401E0590E00306D45B462146179A80
:104D7000059800F05DF805441498007818B15A467B
:104D8000179990476D1CE00324D55B462146179A7E
:104D9000059800F04DF805441CE00498002807DB56
:104DA000DDE90301884203DD0098405C179901E0CA
:104DB000179930205A469047049805F10105401C88
:104DC00004900198401E019004D12E205A46179954
:104DD00090476D1CBAF10001AAF1010ADDDC05E083
:104DE00017F8010B5A46179990476D1CB8F100014E
:104DF000A8F10108F4DC5B462146179A0598ABE65A
:104E00002D0000002B000000200000002DE9F041E3
:104E1000044600251E461746880404D405E039469A
:104E20002020B0476D1C641EF9D52846BDE8F081EE
:104E30002DE9F041044600251E469046C80301D5E1
:104E4000302700E02027880404D505E04146384695
:104E5000B0476D1C641EF9D52846BDE8F0810A688C
:104E6000531C0B601070704708B501208DF80000CE
:104E7000014603486A46006806F080FB08BD000052
:104E8000A0010020F0B4084CC2256570A51E06885C
:104E9000AE808078A8716171A271E3712146F0BC87
:104EA00009220248FEF762BC94010020B48200206F
:104EB00030B4094C0588029B24F8405F8078A070CC
:104EC00005484030C270017143710822014630BC70
:104ED000500100F005B90000349600200822024974
:104EE000500100F0FDB8000098950020082202490A
:104EF0004FF4817000F0F4B8A89500200822024910
:104F000040F2011000F0ECB8A095002030B5094A3D
:104F10000949002002F1200332F8104021F8304006
:104F200053F8204001EBC005401CC0B26C60032860
:104F3000F2D330BDB4010020B095002070B5124E00
:104F4000002500BF06EB0514A07801280ED160688B
:104F500080470020A07020810C490B484A6B103814
:104F600000EBC500D2E90512C0E900122089401CFF
:104F700080B220816189884201D3E06880476D1C3E
:104F8000EDB2022DDED370BD1496002058810020B2
:104F90004FF400510148FDF747BB000000180140E5
:104FA00070470000F0B5124C0020104B024604F18F
:104FB0001805261D04F1200703EB00110A818A70F1
:104FC00034F810C0A1F800C055F820C0C1F804C0E2
:104FD00036F810C0A1F80AC057F820C0401CC0B273
:104FE000C1F80CC00228E7D3F0BD000014960020E1
:104FF000AC0100204FF480410148FDF715BB0000D3
:10500000001801407047000000B50D498BB00B48F7
:10501000486301210E20CDE9081000208A03CDE964
:105020000020CDE902200490069007910590694682
:105030000348FBF7F3FE0BB000BD000050960020C4
:1050400058810020F0B51E4995B01C4848632021C6
:1050500002A8FBF7D4F81B4801230022D0E9001076
:10506000CDE90F32CDE900104801CDE90A02009DDB
:105070000A24119340F2FF7110466F467FEA05063D
:1050800037F82050401C7540ADB2294080B2A04294
:10509000F6D348010C900220CDE90D020E20CDE997
:1050A00012300AA90648FBF7B9FE002803D05021A8
:1050B00005A0FFF743FA15B0F0BD000050960020A0
:1050C00058810020C4BF0108757365725F66696C02
:1050D000655C757365725F63616E2E63000000002E
:1050E00070B540F2FF73984200D31846082A00D3E7
:1050F00008220D4B1C6B2060186B0261002006E03B
:105100000D5C00F114041E6B401CC0B2355590427A
:10511000F6D301210448FCF75DF90448016841F029
:105120000201016070BD000058810020146400403D
:1051300070B50B4E002500BF05EB450006EB800463
:10514000207A28B9607A207260688047207A10B18E
:10515000C0B2401E20726D1C15F0FF05ECD070BD72
:105160008C95002070470000F0B50D4C00200D49D3
:10517000A51E034614F1020600EB400234F810703D
:1051800021F8227001EB82022F5C5772137256F8DD
:105190002070401C576010F0FF00EDD0F0BD000003
:1051A000A60100208C9500201348124940F22312DA
:1051B00001630A60026B00219160026BD160026B97
:1051C00008211161026B43211175026B4121517558
:1051D000026B4E219175026B2021D175026B542117
:1051E0001176036B45225A76036B53229A76006B35
:1051F000C1767047349600205881002010B560B108
:1052000002290AD34218891E32F8024C89B200F0F2
:105210001FF8A04201D1012010BD002010BD0000E8
:10522000012080F3108803490020087180F3108862
:10523000704700003C010020012080F310880349E2
:105240000020087080F31088704700009001002053
:1052500070B5094DFF231A4605F5807606E000BFBC
:1052600010F8014B54402A5D5A40335D491E89B203
:10527000F6D242EA032070BDD0B7010810B504464B
:105280004068804722462068BDE81040014903F08D
:1052900095BD00007D520108FCF7BABB00280BD079
:1052A000426A002A08D0537A082B05D10968926A0D
:1052B000914201D100F086B970472DE9FC4105000B
:1052C00066D06C6A002C63D000232384616B4FF09E
:1052D0003C07B1F1FF3F4FF480364FF001024FF62B
:1052E000FF700AD01E31B1FBF7F1B14200D3014685
:1052F0000904090C618400D16284A16BB1F1FF3F04
:105300000CD01E31B1FBF7F1B14200D301460904C4
:10531000090C218300D12283218BA183E16BB1F1A0
:10532000FF3F0CD01E31B1FBF7F1B14200D3014673
:105330000904090C618300D16283618BE183228BB4
:10534000618B8A4201D301B12383E17A09B1E06A1A
:1053500009E094F828107F2901D8FF2003E0C02934
:1053600001D36FF07F400090206B019028B9A06AB4
:105370000099084040F0807001900A21204600F01A
:105380004DFE01AB6A4604F12801284603F0BEF841
:10539000BDE8FC8170B5446A05460821204600F04E
:1053A0003DFE002204F12801284601F065F8A07AAC
:1053B000FF2801D2401CA0724FF4FA7140F2E7308E
:1053C000B0FBF1F0E08270BD70B5294804684CE094
:1053D000606AA0B3417A91B3418C69B1018C491CD8
:1053E00089B20184428C914206D1204600F0ECFC47
:1053F000204600F037F937E0C18B19B14A1EC2834D
:10540000012906D0818BD1B14A1E8283012917D090
:105410002AE0656A2046697A012905D00A2903D065
:10542000052901D004291FD100F072FB688C298C5A
:10543000401A022818DB00EBD0704008E88313E024
:10544000656A2046697A012903D00A2901D0052915
:105450000AD100F00DFD688B298C401A022803DB6D
:1054600000EBD0704008A8832468002CB0D170BD38
:10547000300000202DE9F04116460C4607000FD001
:1054800094B100224FF49A71104603F0DBF8E0600B
:1054900068B1032E12D0A07A404D58B1A8680CE034
:1054A0006FF00F00BDE8F0816FF00500FAE74FF0F4
:1054B000FF30F7E7FAF778FEA8602060E068002583
:1054C000416801202161087021694870216997F8BD
:1054D0002C0088702069C570206802F011FC2169D9
:1054E000082E486020690581206945812069C560D2
:1054F0000AD0042E08D0072E06D0032E07D1607ADA
:10550000052801D0042802D121697868C860206983
:1055100005612069456120698561002097F82C109C
:10552000814205D9062803D2391891F82D1000E0E0
:10553000002100F11C022369401C80B299541028FC
:10554000ECD3002000F12C012269401C80B255549C
:105550004028F7D35FF0000000F16C012269401C85
:1055600080B255548028F7D321690D48C1F8EC006A
:10557000A5820020226900F1F0015054401C80B245
:105580004428F7D301223521204600F05DF9314649
:10559000204600F069F9002084E70000A800002000
:1055A0006382536310B5064C2078401E10F0FF0054
:1055B000207004D1E06805F0DFFE0020E06010BD3F
:1055C000A80000207CB5446A06460C21204600F065
:1055D00025FD042221463046FFF74CFF050021D16E
:1055E00004223221204600F02FF9A06A02F088FB45
:1055F0000146204600F040F9204600F06FF9A08AED
:10560000F03081B2E06803F0F7F90D484323CDE9AB
:1056100000600D480B4AE168C06805F001FF2046B4
:1056200000F014F8A07AFF2801D2401CA07242F6C4
:1056300003104FF4FA71B0FBF1F0E08228467CBD14
:10564000B0B70108B4B70108A800002010B50400E5
:1056500006D0E06808B103F059F90020E06020614D
:1056600010BD00002DE9FC41446A06460020A062FE
:105670000621204600F0D2FC012221463046FFF7E9
:10568000F9FE070030D102223921204600F0DCF873
:10569000718D204600F011F904223721204600F0D8
:1056A000D3F8DFF880800025204618F8051000F0B8
:1056B000DBF86D1CEDB2042DF6D3204600F00EF998
:1056C000A08AF03081B2E06803F096F916484323CF
:1056D000CDE900601348154A401EE168C06805F036
:1056E0009FFE2046FFF7B2FFA07AFF2801D2401CA0
:1056F000A072C0B2062802D20121814000E03C2104
:1057000001EB4100C0EBC1104FF6FF7101EAC00090
:105710004FF4FA7100F2F310B0FBF1F0E08238467A
:10572000BDE8FC81A9000020B0B70108B4B70108AA
:1057300070B50B48002504680EE0606A58B1C18A54
:10574000012903D9A1F10101C18204E003D1C5827D
:10575000204600F0B9FC2468002CEED170BD00009A
:105760003000002070B5446A0020164EE0622063CD
:10577000F178A6F1280509B1E9686163317909B1C9
:10578000296901E0616B4908A163717909B169690F
:1057900003E0616BC1EBC101C908E163616809699C
:1057A000A162B17921B1A86902F0AAFAE0620120F0
:1057B000E072F079002803D0E86902F0A1FA2063D2
:1057C00070BD00006838002010B5104C2078A8B9D2
:1057D00005F0ACFDE060B0B1017A442241F0200157
:1057E00001720B4905F0C8FB43220949E06805F046
:1057F00033FC00220749E06805F0BAFD2078401C20
:105800002070002010BD4FF0FF3010BDA800002018
:10581000B0B701089D5C0108416A002913D04B7A9A
:105820000022042B0CD004DC002B0CD0032B04D161
:1058300006E0052B04D00A2B02D08A72FFF712BFB4
:105840008A7200F0C1B9704710B5838A04691C449C
:105850005B1C838284F8F010818A03690B44491C25
:10586000818283F8F02010BD828A03691344521CA0
:10587000828283F8F010704710B5828A04690B0E9B
:105880001444521C828284F8F030828A04690B0C22
:105890001444521C828284F8F030828A04690B0A14
:1058A0001444521C828284F8F030828A03691344C3
:1058B000521C828283F8F01010BD10B5828A0469F0
:1058C0000B0A1444521C828284F8F030828A0369E5
:1058D0001344521C828283F8F01010BD002812D0AD
:1058E000818A0369FF220B44491C818283F8F020DE
:1058F000002205E003690B44491C818283F8F020F3
:10590000818A4429F6D370472DE9F04F8BB00446C5
:1059100000208A4608900A217C48FAF770FCBAF801
:105920000A002C2818D3DAF804006060BAF80800DE
:10593000DFF8D881F0256FF00509574604E06A1AB0
:10594000401A3F6895B280B237B17989A942F6D939
:105950000290D7F804B0B5E06FF001000BB0BDE8DD
:10596000F08F00BFA81C80B205907A89681C4FF0A8
:10597000FF36824203D90BEB0500407803E038681C
:1059800008B140680078342904463AD00BDC03297A
:1059900025D003DCD1B101290DD11CE0062923D08B
:1059A000332908D129E035292FD0362931D03A2999
:1059B00033D03B2937D000242844801C85B284B3DF
:1059C0000020099018F8060060B36BE000206D1EFF
:1059D0000446ADB2F0E7042853D10626ECE70424D0
:1059E00004284ED30726E7E781074AD1082800D3C9
:1059F0000824A04245D30826DEE7042841D1032627
:105A0000DAE701283DD10026D6E7012839D1012661
:105A1000D2E7042835D10226CEE7042831D1042666
:105A2000CAE73FE003E004282BD10526C4E7042C95
:105A300001D2204600E004200190024609A9384620
:105A4000059B02F02FFF01460198814284D1042C6E
:105A500013D9A00715D1012008F80600099802F013
:105A60004FF92A49241F2839E4B241F82600059845
:105A7000001D80B2761C0590A4E7042C03D0012CF5
:105A800005D048466AE7099802F03AF901E09DF826
:105A900024000990012008F806001C4809992838BC
:105AA00040F826107889A8420BD8291A8DB202999D
:105AB000081A80B2029085420CD258B13F68D7F8DC
:105AC00004B03FB11BF80510FF2903D002988542AE
:105AD000FFF448AF98F8000058B10C48002228386D
